:020000040000FA
:101800000222711A4D1A52227FB8EF90181393904A
:101810001900730A20364CE563FF22EFF563225A64
:101820002D5761766520342E35340002412D000D90
:10183000FA20000DDC7000000000020C00013F3FA8
:101840003F0404041A2A1A347F0322023482C2D5C8
:10185000E830E70FB2D5E4C39BFBE49AFAE499F9C8
:10186000E498F8EC30E717B2D5121884121D02E4A0
:10187000C39BFBE49AFAE499F9E498F88003121DFB
:101880000230D50DE4C39FFFE49EFEE49DFDE49C81
:10189000FC22788CE4F6D8FD9000007F007E10E4F6
:1018A000F0A3DFFCDEFA904FFFA3E583C394204052
:1018B00011FEAF829020000E0FE48002F0A3DFFC47
:1018C000DEFA12192002228322323F241E16110E44
:1018D0000B09070504030201F0C8A791776760466A
:1018E000383532302422201400010102020303049F
:1018F00004050506060707822D1C1613111010FF9C
:10190000C0637419C0E0C082C08375630AE5FF54E8
:10191000CF4490F5FF22C0637419C0E0C082C08339
:10192000756320E5FF54CF4490F5FF22C06374191E
:10193000C0E0C082C083756336E5FF54CF44A0F594
:10194000FF22C0637419C0E0C082C08375634CE598
:10195000FF54CF44B0F5FF229080042116909000F0
:10196000211690900321169097B82116909FAE21D2
:1019700016909FB1211690F9E3211690B7B9211660
:1019800090B7BA211690B894211690ADA021169068
:10199000C004211690C01C211690C022211690A6CA
:1019A00015211690C3142116909922211690C50F67
:1019B000211690C524211690C536211690C5CB213D
:1019C0001690C553211690C741211690C7AF211616
:1019D00090C817211690A217211690A0B921169031
:1019E000A0D2211690A014211690C8AE211690A85E
:1019F00059211690A7A5211690AFAA211690C8F0DC
:101A0000211690A299211690A1C9211690A10A2110
:101A10001690A180211690CA32211690CB4821162B
:101A20009097D7211690CA78211690CC372116901E
:101A3000BD80211690CDAE211690C9CA211690C73F
:101A40003B211690C677211690C683211690CEBDF5
:101A50002116909E31211690C79B211690A77821C0
:101A60002C90824A212C908000212C90A7FF212CC1
:101A700090A82B212C9081C5212C90A84B212C9033
:101A8000AC82212C90AD5E212C90ADD6212C90AE55
:101A900002212C90993A212C90834A212C90AE1946
:101AA000212C90830F212C90AE5F212C00BB0106CE
:101AB00089828A83E0225002E722BBFE02E3228968
:101AC000828A83E49322BB010CE58229F582E583B7
:101AD0003AF583E0225006E92582F8E622BBFE06AD
:101AE000E92582F8E222E58229F582E5833AF58349
:101AF000E49322BB010989828A83F8E028F022500E
:101B00000327F722BBFE05F8E328F3228A838982A4
:101B1000F8E4932822BB010689828A83F0225002CE
:101B2000F722BBFE01F322F8BB010DE58229F58205
:101B3000E5833AF583E8F0225006E92582C8F622CB
:101B4000BBFE05E92582C8F222EF8DF0A4A8F0CFF4
:101B50008CF0A428CE8DF0A42EFE22BC000BBE007B
:101B600029EF8DF084FFADF022E4CCF875F008EF9A
:101B70002FFFEE33FEEC33CFEE9DEC984005FCEEEC
:101B80009DFE0FD5F0E9E4CEFD22EDF8F5F0EE84F0
:101B900020D21CFEADF075F008EF2FFFED33FD40B5
:101BA00007985006D5F0F222C398FD0FD5F0EA222F
:101BB000C2D5EC30E709B2D5E4C39DFDE49CFCEE50
:101BC00030E715B2D5E4C39FFFE49EFE121B5BC352
:101BD000E49DFDE49CFC8003121B5B30D507C3E44D
:101BE0009FFFE49EFE22C5F0F8A3E028F0C5F0F8C0
:101BF000E582158270021583E038F022A3F8E0C573
:101C0000F025F0F0E582158270021583E0C838F007
:101C1000E822BB010A89828A83E0F5F0A3E0225022
:101C20000687F009E71922BBFE07E3F5F009E3197F
:101C30002289828A83E493F5F074019322BB010A1E
:101C400089828A83F0E5F0A3F0225006F709A7F015
:101C50001922BBFE06F3E5F009F31922EF2BFFEE84
:101C60003AFEED39FDEC38FC22C3EF9BFFEE9AFE05
:101C7000ED99FDEC98FC228E8FF0A4CC8BF0A42C77
:101C8000FCE98EF0A42CFC8AF0EDA42CFCEA8EF08A
:101C9000A4CDA8F08BF0A42DCC3825F0FDE98FF071
:101CA000A42CCD35F0FCEB8EF0A4FEA9F0EB8FF068
:101CB000A4CFC5F02ECD39FEE43CFCEAA42DCE35F0
:101CC000F0FDE43CFC2275F008758200EF2FFFEE7A
:101CD00033FECD33CDCC33CCC58233C5829BED9A58
:101CE000EC99E58298400CF582EE9BFEED9AFDECB6
:101CF00099FC0FD5F0D6E4CEFBE4CDFAE4CCF9A8FC
:101D00008222B800C1B90059BA002DEC8BF084CF03
:101D1000CECDFCE5F0CBF97818EF2FFFEE33FEEDDA
:101D200033FDEC33FCEB33FB10D703994004EB9904
:101D3000FB0FD8E5E4F9FA227818EF2FFFEE33FE17
:101D4000ED33FDEC33FCC933C910D7059BE99A404C
:101D500007EC9BFCE99AF90FD8E0E4C9FAE4CCFB64
:101D60002275F010EF2FFFEE33FEED33FDCC33CCB8
:101D7000C833C810D7079BCE9AE899400AED9BFD5F
:101D8000EC9AFCE899F80FD5F0DAE4CDFBE4CCFA54
:101D9000E4C8F922EF5BFFEE5AFEED59FDEC58FC6A
:101DA00022C3E49FFFE49EFEE49DFDE49CFC22EB45
:101DB0009FF5F0EA9E42F0E99D42F0E89C45F02252
:101DC000E8600FECC313FCED13FDEE13FEEF13FF01
:101DD000D8F122E8600FEFC333FFEE33FEED33FDA1
:101DE000EC33FCD8F122BB010789828A83021E28CA
:101DF0005005E9F802204BBBFE05E9F80220572206
:101E0000E0FCA3E0FDA3E0FEA3E0FF22E493FC746A
:101E10000193FD740293FE740393FF22E0F8A3E0A4
:101E2000F9A3E0FAA3E0FB22ECF0A3EDF0A3EEF0BF
:101E3000A3EFF022A8828583F0D083D082121E4BBC
:101E4000121E4B121E4B121E4BE473E493A3C58368
:101E5000C5F0C583C8C582C8F0A3C583C5F0C583D6
:101E6000C8C582C822A42582F582E5F03583F583B2
:101E700022E0FBA3E0FAA30EF922F8E0FBA3A3E023
:101E8000F925F0F0E582158270021583E0FA38F04A
:101E900022EBF0A3EAF0A3E9F022BB010789828AD2
:101EA00083021E715005E9F8022063BBFE05E9F8C4
:101EB00002207589828A83022087BB011A89828A5F
:101EC00083D0F0D0E0F8D0E0F9D0E0FAD0E0FBE841
:101ED000C0E0C0F0021E915016E9F8D083D082D045
:101EE000E0F9D0E0FAD0E0FBC082C08302206CBBF6
:101EF000FE16E9F8D083D082D0E0F9D0E0FAD0E045
:101F0000FBC082C08302207E22D083D082F8E4937B
:101F10007012740193700DA3A393F8740193F5826A
:101F20008883E4737402936860EFA3A3A380DF8ABD
:101F3000838982E473EC8EF0A4CCC5F0CCCDF8EFAD
:101F4000A4CEC5F02DFDE43CFCE8A42EC8C5F03DB0
:101F5000FDE43CFCEFA4FFE5F028FEE43DFDE43C9D
:101F6000FC22E709F60870FA8046E709F20870FAE1
:101F7000803E88828C83E790F0A370FA807EE3092C
:101F8000F60870FA8076E309F20870FA806E8882AB
:101F90008C83E309F0A370FA806289828A83E0A3CC
:101FA000F60870FA805689828A83E0A3F20870FAF4
:101FB000804A80D280FA80C680D4806580F28031E9
:101FC000801080A680EA809A80A880DA80E280CAA9
:101FD000803189828A83ECFAE493A3C8C582C8CC95
:101FE000C583CCF0A3C8C582C8CCC583CC70E980BA
:101FF0000D89828A83E493A3F60870F9ECFAA9F0BC
:10200000EDFB2289828A83ECFAE0A3C8C582C8CCA2
:10201000C583CCF0A3C8C582C8CCC583CC70EA8088
:10202000DD89828A83E493A3F20870F980CE88F078
:10203000ED2402B4040050C4F582EB2402B4040081
:1020400050BA2323458223901FB273ECF608EDF6B5
:1020500008EEF608EFF622ECF208EDF208EEF208D0
:10206000EFF222E6FB08E6FA08E6F922EBF608EAC8
:10207000F608E9F622E2FB80E2FA08E2F922EBF246
:1020800008EAF208E9F222E493FB740193FA74027D
:1020900093F92241257D004102B2004127B900C1D8
:1020A00027C11F4104150601140041041401410415
:1020B0001301C118011A00011700C119C11BC10F7A
:1020C000412379004123DFFF4123D700C10EC10D19
:1020D0004123E0004123E1004123D801C111412304
:1020E0007800C11EC115013000C112C1134326E1A1
:1020F0000000004126E0004126E40049229E4C6990
:1021000066656C696E65004622A7424153494300EB
:10211000C1074122B500C108C1094122B6004222CF
:10212000B700004122BB00C10AC10B4122BD0141E1
:1021300022BEFF4122C2024122C3034122C7004105
:1021400022C8004122CA004122CB004122CE0041D8
:1021500022CF004122D0004122D1004122D20041B1
:1021600022D3004122D6004122D7004122D800418B
:1021700022D9004122DC001422DE004122E000418D
:1021800022E1004122E2004122E3004122E4004139
:1021900022E7004122E8004122E9004122EA004111
:1021A00022EB004122EDFF4222F100004222F30027
:1021B000004122F7004122F8004122FD004122FFA8
:1021C000004123000041230100412302FF41230479
:1021D0000541230D0A41231FFF412320C441232130
:1021E00040412325FF41236F00E00C026030001EB8
:1021F000010A00040001010A043600902093E47EE5
:102200000193700122A3FF543F30E509541FFEE4FF
:1022100093A360010ECF54E0B4E03AEFFAEEF9E494
:1022200093FBA3E493FEA3E493FFA3E493FDC08395
:10223000C082C001C002C006C007121971D007D009
:1022400006D002D001D082D083A30FEF70010EDA46
:10225000DAD9D880A954C025E060105005A3DFFD6D
:10226000809CA3A3A3DFFDDEFB8093A3A3DFFD80FF
:102270008D75818C75FF03579E02121920022A4921
:102280000218C8902093E47E019360F4A3FF543FAA
:1022900030E509541FFEE493A360010ECF54E0B46F
:1022A000E00EEFFAEEF9A3A3A3A3DAFDD9FB80D6E3
:1022B00054C025E0604B5026E493A3F85407240C47
:1022C000C8C333C4540F4420C8834004F45680016B
:1022D00046F6DFE480B00102040810204080E49359
:1022E000A3FAE493A3F8E493A3C8C582C8CAC5833C
:1022F000CAF0A3C8C582C8CAC583CADFE9DEE780C1
:1023000085E493A3F8E493A34003F68001F208DF89
:10231000F40222865E7131337286598570775A7A5B
:1023200073EF201A6B1A701A751A7A1A7F1A841AA8
:10233000891A8E19D519DA19DF19E419E919EE1974
:10234000F81A07A104197B198A198F199419991978
:10235000A37F01B1C9902575E0121F0923780423DA
:102360008014238515238A17239A30239F3423A4AE
:102370003623A937000023295357EF855780802F34
:102380005358EF80085358DF800353587F85589087
:10239000801D5359DF8559A08015535AFE800D5377
:1023A0005AEF8008535ABF8003535A7F855AB07F33
:1023B0000CDFFE227F01B1C99027B67401F090278F
:1023C000B6E0602E912E914B9027B6EFF091EC91F4
:1023D0003A902571EFF091EC9027B6E05401F1416D
:1023E00060DCA3E0F460D7EF30E7D3E49027B6F0E9
:1023F00080CC71557F9F9132914B9025729149907D
:1024000025779149902578EFF0B1C5902570E0F4DB
:10241000601BA3E0F46016902577E0FD541F240FA5
:10242000A3F0EDC41354074480902577F022715532
:102430007F05E5C820E2FB8FEB2271557FD79132F3
:102440007FFF9132914F902570EFF07FFF9132E541
:10245000C820E2FBAFEB227F01B1C9302514912ED9
:10246000914B9027B8EFF091EC9027B8E020E00274
:10247000C225302517913A092571EFF141600BA370
:10248000E0F46006EF30E702C22591ECE4FFB1C949
:10249000A225E433FF229026F7121E289026F71279
:1024A0001E00B1D59026FBE06F6033D1B69157EF97
:1024B0006004D1A280F791E07155D1C560079026E4
:1024C000F7F10D91329026F7F10391329026F71231
:1024D0001E00E491329026FBE0FFB1C3D322C32259
:1024E0007F01B1C9D22571557F069132F1DEEF70BF
:1024F000FB902577E0F4600A9027B57406F0F11799
:1025000070FC902575E0121F09252504252D142542
:102510003215253717254730254C34255136255699
:10252000370000253F435710855780802F435810B0
:1025300080084358208003435880855890801D436D
:1025400059208559A08015435A01800D435A1080A7
:1025500008435A408003435A80855AB09027B57487
:102560000CF0F11770FC22902632121E28902636AD
:10257000121E91D1B69157FE6004D1A280F791E06E
:102580007155D1C56007902632F10D9132902632F7
:10259000F1039132902632121E00E4801C902639FD
:1025A000F1526019902636121E71EA494B6008906C
:1025B0002636E4F1498001E4FF913280E091ECE4B9
:1025C000FF8006913291ECE4FFEFB4010443FE205A
:1025D0002253FEDF229026F2121E28D1B69157EF29
:1025E0006004D1A280F771517F03D1CA60079026A1
:1025F000F2F10D91329026F2F10391329026F2120F
:102600001E00E49132914B9026F6EFF0B1C5902672
:10261000F6E0FF2290263B121E2890263F121E91C4
:10262000D1B69157EF6004D1A280F771517F03D1E9
:10263000CA600790263BF10D913290263BF1039141
:102640003290263B121E00E49132902642F15260F5
:1026500014914B90263F121E71EF121B15902640CD
:10266000E4F1E480E591ECE4FFA1C9D1B69157EF24
:102670006004D1A280F7910E71557F0191327F03E2
:10268000913291ECE4FFA1C9902570E020E0127135
:10269000517F3D91327F2A91327F8091327FA6B166
:1026A000C322E51530E20EE51520E509E51530E019
:1026B000047F01F17E2275FF02E5E430E10675E456
:1026C0000675E40322902573E0FF9132902576E0B1
:1026D0006402229027B7EFF090257EE0640270221A
:1026E00071519027B7E07FAB60027FB9913291ECD6
:1026F0009027B7E090257DF070047F1EDFFEE4FF99
:10270000B1C922121E007808121DC0E422121E0058
:102710007810121DC0E4229027B5E014F0E022D119
:10272000B69157EF6004D1A280F722E075F002A4C1
:102730002481F9740F35F07B02FEAF01E4FCFDA1AA
:10274000D5F0902570E0FFF42275F001121E7A0298
:102750001AAD74FFF5F0121BFC45F0229026BEF175
:10276000EAC0079026BE121E719026C1E0FF902697
:1027700042E4F0A3EFF0D070C114EFF07F01EF60FE
:102780000C122CB9AE83E4FD1234048009F1BA12A4
:1027900047C8E433FF227F012290043F121E91C2FA
:1027A00028E4FFF17EBF010B90043F121E71123C22
:1027B0009992287F01F17EA22822F1C5EF700512BF
:1027C0002CC980F622E4FFF1F154F0FEBE40037FF5
:1027D00000220FEFB403F07F0122E4FFA1C9E5C896
:1027E0005404FF2275F001021BE6121E91E4FCFD69
:1027F0002275F0E5EF900001121E65E0229025722F
:10280000E0121B15902577E0900001121B27902500
:1028100078E0900002021B277A2579757F03D1FCAE
:102820007A25797E7D017F081219C67A25797B7F0A
:102830000931DB7A2579797F0B31DB902579E0FE50
:10284000A3E0FF4E6006BEFF1BBFFF1890257EE091
:1028500024FD600304700431E28009902579E4F0DE
:10286000A37440F090257EE024FD6003047008907E
:1028700025767403F080060925767402F09025759C
:10288000E0121F0928A00428AB1428B31528BB1791
:1028900028D13028D93428E13628E937000028C665
:1028A00075FF015353EF8553FD804775FF01535466
:1028B000EF800E75FF015354DF800675FF015354FE
:1028C0007F8554C9802C75FF015355DF8555CA801B
:1028D0002175FF015356FE801675FF015356EF8098
:1028E0000E75FF015356BF800675FF0153567F8555
:1028F00056CB1224EC7F1131CDE4FF1226D31223E4
:10290000B49025737402F0902577E0247F60090469
:10291000701631D3740A800712268831D37458F0A8
:102920009025767403F031E2902578E0F46002217E
:10293000CA90257BE0FEA3E0FF64104E7006902550
:1029400078740EF0EF64204E7006902578740FF0C6
:10295000EF64404E70069025787410F0EF64804E5E
:1029600070069025787411F0E4B5070AEEB40106FC
:102970009025787412F0E45B070AEEB40206902505
:10298000787413F0E4B5070AEEB404069025787461
:1029900014F0E4B5070AEEB408069025787415F033
:1029A000E4B5070AEEB410069025787416F0E4B585
:1029B000070AEEB420069025787417F0E4B5070AEC
:1029C000EEB440069025787418F002266BEF442090
:1029D000F5FE227F1031CD902573227B017D02020E
:1029E00019C69025797401F0A3E4F0221118124C55
:1029F0002E1219AD1242439002B3E064017F0060D1
:102A0000027F01121A16121A1B1219851255CF795C
:102A1000B6121962D1F5E0FE4FFDA3E0FC4DFDA317
:102A2000E0FB4D600BEE5FFFEC5FFFEB5FF47002CD
:102A3000D1A690121CE0FF540324B6F582E43402C0
:102A4000F583E06F9002B1F02275FF0275E404E4B3
:102A5000F5E4C21775FF02901215E0603CE5E654FC
:102A60000364017034121A3E1249D240209012229F
:102A7000E0600DE014F07080121892E4901215F0EE
:102A8000901215E07002611012399C6110121892B8
:102A9000D217E4901215F08077121892124CFA9027
:102AA00002B3EFF0901200E0B47A14901214E0B484
:102AB0009C0D9002B3E0FF64056004EFB4032EE4C4
:102AC0009002BCF09002BCE0FFC394405013E42F8E
:102AD000F582E43412F583E4F09002BCE004F08067
:102AE000E3901200747AF0901214749CF01219CBD7
:102AF0007B017A1279107D017F011219C67A127951
:102B0000117F21D1FC7A1279127D017F221219C620
:102B1000121A43124CFA1240CA9002B3EFF0121983
:102B2000B71240859002B3E0FFB40602800C301764
:102B3000047F0280059002B3E0FF121A5CEF24FFCD
:102B4000B3922775FF0253E6BF9002B3E0640160C1
:102B500005E4901215F0124111121A4831EC90124E
:102B600015E0700F20270C121A667B017A2379E397
:102B70001219FD90121DE003E00280033017057F5B
:102B80000112277ED2AF302775F1B812439B121A7B
:102B9000611219C140F39002B2E0603EF11FEF7084
:102BA00004F1434035E51470FCE51520E5031247B8
:102BB000C812195DEF70FAF1315004F18B50057FA6
:102BC000011226D39002B2E0B40204E4FF8009901F
:102BD00002B2E0B403047F01F1D491C9E51530E1FC
:102BE000A8D1774002E4F0E51520E50991B9AE835C
:102BF0007D011234049002BC91BCF106808B12401E
:102C000015F19F5002D1A69002B2E0605A9023794C
:102C1000E07054F11FEF7004F143404BE51470FC79
:102C2000E51520E50A90121DE020E0031247C812C6
:102C3000195DEF70FAF1315004F18B50057F0112EC
:102C400026D39002B2E0B40203E480189002B2E00E
:102C5000B403047F01800E9002B2E0B40509901223
:102C6000157401F0FFF1D4F1B812439B121A93903E
:102C700002B0E0700491C90815124051FF9002B0F3
:102C8000E0FEC3EF9EC394064002E4F0D2AD1218FA
:102C900007E51530E11BD1774002E4F0E51520E5AA
:102CA0000991B9AE837D011234049002BC91BCF14C
:102CB00006121A2F12407061FE9002B4E075F0AA5D
:102CC0009002BF121E65AF8222E4900449124CBBF1
:102CD00075F0E5E5621227F554F064407002C122F8
:102CE000E4FE75F0E5EE1227F5FDB4010990044A03
:102CF000EEF0E4FF8023EDB4020B90044AE0B4FF51
:102D000004EEF0800F75F0E5EE1227F554F0FDBDEE
:102D100080027F010EEEB403C9EF600690044A748E
:102D2000FFF090044AE0F47002C1221244B1500254
:102D3000C122E51530E102C12290044AE0FF900073
:102D400004D18C30E408900006D194549FF0D165F2
:102D50009000B8121E65E0540FFEBE05089000BC3E
:102D6000D19430E114D165900003121E65E020E596
:102D7000289000BBD19DB4FF2090044AE075F0E597
:102D8000900005121E65C083C082E04401FFA3E0ED
:102D9000D082D083CFF0A3EFF090044AE0FD900002
:102DA00005D18CFEA3E0FFC006C007ED75F0E5A4D9
:102DB00024B3F9740035F0FA7B01C002C001D1657B
:102DC0009000D9121E65E090042CF0EF75F0E5A498
:102DD0002409F9740035F0FAA3121E91D165900010
:102DE000B2121E65E0900430F09000DAD19D90049C
:102DF00031F0E4A3F0D001D002D007D00612318C1C
:102E0000502090044AE0F56275F0E51227F5444041
:102E1000F09004497401F090200EF0E51530E202C4
:102E2000D322E51530E2377F04D16E75F0E5E56217
:102E30001227F5FF54F06440701F75F0E5E562124B
:102E40004CB3540FF075F0E5E5621227F54480F0BD
:102E5000E562F11012198080057F0112277E90042F
:102E600049E024FF2290044AE0FF75F0E522C2AF5A
:102E7000EFF45215D2AF22F702D16E9002B4E09077
:102E800002BCF09002B404F0C394022275F0E51283
:102E90001E65E02275F0E5EF121E65E02275F0E593
:102EA000EF121E65E022E4FF12277EEF60467B01F1
:102EB0007A0279B61227999002B6E0C394C040EE28
:102EC0007B017A0279B8122799D1F5E05FFFA3E080
:102ED0005FFFA3E05FF460E890121DE030E0057F43
:102EE0000112277EE490121CF07B017A0279B6E091
:102EF000FD121967229002B6E0FFA3227B017D013B
:102F00001219C67B0122AE839002B5E0FD0219A81A
:102F100075F0E5A42401F9740035F0FA7B0122E490
:102F2000FF1227F160037F00220FEFB403F37F014C
:102F300022900001740193B40007E493B41802C313
:102F400022D3229002BDE0FEA3E0FFF155D3EF941F
:102F5000C8EE940022902795EEF0A3EFF01244966D
:102F60009027951255DE5009C3EF9DFFEE9CFE8021
:102F700019902795E0FCA30EF4FDECF4FCED240180
:102F8000FDE43CFCED2FFFEC3EFE227F017E009035
:102F900017FCE4935EFE7401935F4E24FFB322900E
:102FA000121CE07011D1F5E04FFFA3E04FFFA3E04A
:102FB0004F7003D38001C322302018E560601415E0
:102FC00060902793E0FEA3E0FF4E6007AA06A907E2
:102FD000121F2F2243FB1075FF0243E640EF600DE6
:102FE00075FF02E5E120E7FB43FB0D800343FB0E89
:102FF00080FEFEAF01E0FDAB05E4FCFD9026FBEB9F
:10300000F0022496123114121E919025ED121E71B9
:103010009025F012389B9025E9121E0012380150BD
:103020000201CA90257AE024FFFF902579E034FF61
:10303000FEE4FCFD9025E9121E1C121D949025F261
:10304000EEF0A3EFF04E603311CCC390257AE09FF1
:10305000FF902579E09EFE9025F2F0A3EFF09025F9
:10306000F01255DE5002313611D5121E71E94A6058
:103070000411CC80487E00F70080429025F0E0FEED
:10308000A3E0FF4E6042902579E0FCA3E0FDD3EF82
:103090009DEE9C400A9025F2ECF0A3EDF0800D909F
:1030A00025F0E0FFA3E0A3CFF0A3EFF011D5121EAF
:1030B00071E94A600411CC80047E007F009025EE07
:1030C000EE8FF0121BE680B3D322C3229025F2E0EC
:1030D000FEA3E0FF229025ED121E719025F2E0FF85
:1030E000A3E0902639CFF0A3EFF09025E9121E005F
:1030F0001225679025F2E0FEA3E0FFC39025F1E0E2
:103100009FF09025F0E09EF09025E9121E1CE4FC53
:10311000FD121C5C9025E9121E289025ED229026B8
:10312000781227EAC007902678121E7190267B122B
:103130005411D0070104A3ECF0A3EDF02290043C5D
:10314000EFF03136751401E4FBFDFF714E7B017A1F
:1031500004791671B1E4FD7F02F1B9125600F5D27F
:103160009004167455F090043CE0900417F090041D
:10317000147402F090043E0E90042530E507E4F04C
:10318000A3743CF022E4F0A374F0F0229004271220
:1031900055C6C2EBE51460026132E51530E202C3A8
:1031A00022F1F15004C22F71BED11EE5D120E0FB07
:1031B000E4F510C217900428E05407C39403E49484
:1031C000005022900430E0FF90042CE02FFFE43305
:1031D000FED3EF9440EE648094804009431504A22E
:1031E0001692EDD32290042D121E71CFE9CF8A11D1
:1031F0008F12900430E0F516AE11124DEB900429B9
:10320000121E718B1C8A1D891E90042CE0F51F90E4
:103210000427E0FCA3E0FD54606031900431E0FF3E
:10322000313D7140121AADFB7A00900425E0FEA3F7
:10323000E0FF7C007D17121B49EF2BFFEA3EFEEFFB
:103240002414FBE43EFA7D027F016114900427A35D
:10325000E05407900414F0751408900429121E71AC
:1032600071B190042CE0FFAD16F1B9900414E06444
:103270000370277B01FD71D3718250077140740187
:10328000121AF3E4F5FF1256137140121AAD2428F6
:10329000FBE433FA7D03E4FF807A900414E06402D7
:1032A0007023713A71824007714074FF121AF31251
:1032B0005600F5D27140121AAD2414FBE433FA7DA6
:1032C000027F01804FE4713A71824007714074FFC0
:1032D000121AF3E4F5FF71A67F0560027F0AEF542E
:1032E0007FFFE5D254804FF5D2E4F5FF43D28071E1
:1032F00040121AADFD7C0071A67E0060047F0A803A
:10330000027F05EF25E0FFEE33FEEF2DFBEE3CFAEA
:103310007D017F01124B73900427E0FEA3E0FF12B2
:1033200045644006A21692EDC322A21692EDD2EB9E
:10333000D322A21692EDD2EBC322FB7D01FF714E88
:10334000900429121E71E92407F9E43AFA22E4F5FF
:10335000FF75D102E5D120E0FBE4F5FFF5D1EF6088
:1033600008E4F5FF43D2808006E4F5FF53D27FEBFB
:103370006006E4F5FF43D140ED6006E4F5FF43D17C
:103380000822121AADFF900430E0FD90042CE02DCD
:10339000FDE433FCED2401FDE43CFCD3EF9DEC6443
:1033A00080F874809822900427E0FEA3E044104E39
:1033B00022E4F5FFE9124DE2EA540F42D6229027AB
:1033C000BAE5F4F0E0547FF5F47F827E00F116F167
:1033D000A25005E5FC20E6F7302F089027BAE0441C
:1033E00080F5F47FE87E03F116F1A25005E5FC209C
:1033F000E6F775FF01E5D520E702C322E5F4D330F7
:10340000E601C322900439EEF0A3EFF0E5147071E9
:1034100012561CF1F15004C22F71BE900439E0FE27
:10342000A3E08E11F512AE11AF127DAA124DC1E4C8
:10343000F5FF75D901F510E5155421602BE5153020
:10344000E504E4FFD12AE490043BF090043BE0045F
:10345000F0124A2EEF600990043BE0C3941040EB59
:103460007F02121AA75315DE900413E07F00B40305
:10347000027F01D12AB1E92D2F71BED2EBA21692A3
:10348000ED22C0E0C0F0C083C082C0D075D008C0BB
:10349000FFF1478F18E51864027050E51424F860B6
:1034A0004024076002A1DC90042512441B7028AB65
:1034B0001CAA1DA91E71B1AD16AF1FF1B9E4FB7DA9
:1034C00001FF714E75FF0012561343FA0475FF0099
:1034D000B1EF751408A1DC43FA0475FF00B1EFA148
:1034E000DCC2EB751400431504A1DCE5186401602F
:1034F00002A1DC12507B4002A1DCE510702B85128A
:1035000082851183E090044BF0E0FF64556004EF86
:10351000B4540BD217124053900424F0A1AB751091
:103520000275FF0075D908A1DCE5106402705A121B
:1035300055F6F583E090044BF012500E1247FD90C3
:103540000413EFF090044BE0FFD39409402590045E
:1035500013E0D39402400CEFD394AA7F0040027F83
:1035600001800D90044BE0D394407F0040027F0126
:10357000EF6005124822803390044BE0FFF516758A
:10358000FF008FD97510038053E5106403704D124E
:10359000482275FF00900413E0C39403E5D350055F
:1035A0005402FF80035401FFEF6004B1F6802DC286
:1035B0002F71BE75FF00D121E5D120E0FBC2EB43A6
:1035C0001502751000900413E0B4030A1516125585
:1035D000F6F583E516F09002B5E516F0D0FFD0D0F1
:1035E000D082D083D0F0D0E03243FA04E4F5FF5328
:1035F000D1FD43D10122D11AE5D120E0FBE4F5FF52
:1036000075D901900413E07F00B403027F01D12A31
:10361000B1E9D22F71BEE4F51022C22F71BEE4F5DC
:10362000FFE5D154FE4402F5D12275FF01E5D53006
:10363000E602C322E4F5FF439A80EF123FE3E4F58C
:10364000FF539A7FD322902743EFF0A3123F38E92C
:10365000F075FF01F147EF64016002C322E5F43029
:10366000E602C3227FE87E03F11AF10FF1DB40018D
:1036700022C22F71BE902734E0FFD12A53F4DFD24B
:103680002F71BE7F787E00D1C975FF0153E4BFE57D
:10369000E430E7FB124B087F8A12560A30E6061226
:1036A0003ED9E4800875FF01123ED9E5D9121B15F9
:1036B00075FF0143E44090120EE0D39401400343B0
:1036C000F420F1DB400122D322CDEFCDCCEECCF1C2
:1036D000ADAB94EF4BF1F9CBEFCBFAE59130E71DB1
:1036E000F1B0A994E9F582EF4582FFEB2DF582EA6E
:1036F0003CF583C3EF9582E5F0958340DEE59120AC
:10370000E708CEECCECFEDCFF13A227E00F11A756C
:10371000FF0343918022F17180F575FF03D3EF948D
:1037200002EE9400400874FE2FFF74FF3EFEEFF59A
:1037300092EE540FF591227F3FFEF11AF10F75FFC3
:1037400003E59120E7FB227FFAF10BE5FC30E6046C
:10375000F1A240F7E5FC30E6037F032275FF01E5A7
:10376000D530E6037F0222E5D57F0030E7027F01F6
:1037700022902733EEF0A3FEF07B017A277935F112
:10378000C65014902735E0FEA3E0FF902734E09F59
:10379000902733E09E400A902733E0FEA3E0FFF13C
:1037A0001A2275FF03E591C330E701D32275FF03A9
:1037B000AF93EF75F010A4FF22E4F5FF8FD4F5FF6F
:1037C000CFEDCF8FD522F1ADAD94EF4DF1F98FF064
:1037D000121C3DE591C330E701D322E5F730E50F38
:1037E000E5F754C07004F1A240F1123F31C322D377
:1037F00022E5F4C330E701D32224FBFFE5F034FFD8
:10380000229024D4121E289024D8121E91E49024D1
:10381000FBF0D39024DCE0941E9024DBE094004085
:1038200001227B017A2479DD9024DBE0FFA3E09084
:103830002642CFF0A3EFF09024D4121E00122614DB
:103840009024D8121E71E94A600F9024FBE0F582A3
:10385000758300121AC6FF80027F009024FBE024CB
:10386000DDF582E43424F583E06F6002C322902406
:10387000FBE004FFF0D39042DCE09F9024DBE09477
:103880000050BD2290267F1227EAC00790267F12A3
:103890001E71902682119BD0070101E0FFA3E090EA
:1038A00024DBCFF0A3EFF022E4F97D0CAC0109ECAE
:1038B00090181F93FC0FEFAA0670010E14F5828A70
:1038C00083ECF0DDE70218488F828E83E4F0A37466
:1038D0000411DB743611DBA3E4F022F08F828E83B7
:1038E000A3A32275FF0275E40475E40175E40222C6
:1038F00075FF0275E404E4F5E42290043331C790C7
:10390000121DE05430600631C45002C322900433CB
:10391000E0B4040BA331619004337403F08025906C
:103920000433E06405701890121DE090043430E513
:103930000631617F1F80043169E4FF31BC8005904E
:1039400004343169900433E09002B2F0900435E021
:10395000901222F01244969002BDEEF0A3EFF0D345
:1039600022E0FB7D017F018006E0FB7D01E4FFEBAF
:10397000600875FF0153CDDF800675FF0143CD025E
:10398000ED600553FBDF800343FB20EF600775FF0D
:103990000243E1402275FF0253E1BF2290121DE075
:1039A0007B027D0130E5087F01316F7F1F8006E4D7
:1039B000FF316FE4FF31BC7F01022FD475FF028F0E
:1039C000E32280F8A21722EFF0A3EDF0A3EBF022A0
:1039D00090269231C79026987401F0C22E7FE87E1F
:1039E000031237161237A25005E5FC20E6F612370F
:1039F00047BF0108E4F5FC75FC408008123747BF5B
:103A00000202D322F1D5902693E0FF124FD975FF21
:103A10000153D5DF53FAFB902692E0FF12362A902D
:103A20002693E0902692B40809E051E12452918E49
:103A30008004E051E1FFD18C902694E0FFF1C8753D
:103A4000FF0175FF03759B047FE87E03123716752F
:103A5000FC42E5FC20E1051237A240F3902695E0F8
:103A6000F075FF03E59B20E7051237A240F3E59BC5
:103A700020E70C75FF0375B91FF115D22E804DD1CB
:103A800085D1E5902693E0FD90120FE05D701C90CB
:103A90002692E0FFD1851245AD90120FE0FF9026EF
:103AA00093E0FEEF4E90120FF0914DF14A7B017AB8
:103AB0002679961237C6500FC3902697E09420902F
:103AC0002696E0940340E6D185124B1212373E3021
:103AD0002E0221D5902698E0B40103D38001C322A1
:103AE000EB25E025E02401F582E43412F583E0FCC7
:103AF000A3E0FDA3E0FEA3E022902520121E28757E
:103B0000FF0243E180F115124FA3902535121E34B8
:103B1000002DC6C0E4F5FFF5A490120EF0A3F090BE
:103B200025307402F0D1C8FFF595EF1460181460C9
:103B3000262402703690252051EEFF902531121E6A
:103B40002890252C802090252451EEFF90253112BD
:103B50001E2890252D800F90252851EEFF902531AD
:103B6000121E2890252EE0902539F0124FCC90257A
:103B700039E0700FF5FFF56975FF0175D70975F428
:103B800018805990120EE004F0902530E0F1E39097
:103B9000253551EEFF902531F13FFBC3121DAF508B
:103BA0000A90253151EEFFA3121E28902539E0FF1F
:103BB000124E2490252FE0FFA3E0FDA22D922B12A0
:103BC0004F51A351EEFF902707121E28902530E099
:103BD000FFB1E4902530E051E1FFD18CD1D06002FB
:103BE00061257402F0D1C8F595E5F454077017907B
:103BF0002535916F7801121DC0902530D175121EA8
:103C00002851E0FFD18CD1D070DB75FF0375958012
:103C100090120EE0D39401400343F420A22D922C85
:103C2000124E8390253551EE2420FFEE344E9191B3
:103C3000E4FB7A04F9F8917F7801121DC0C22A12C0
:103C4000429BE4F5FFE5BD54F84404F5BD90121322
:103C50007401F07E127F01E4FDEF2DF582E43EF564
:103C600083E0FC901213E02CF00DEDB412EB22FF78
:103C70007E04FDFCE0F8A30EF9A3E0FAA3E0FB123A
:103C80001C77E47B7DFAF9F8121D02EF2401FFE4B2
:103C90003EFEE43DFDE43CFC229025F4F138E9F0E1
:103CA0009025FA121E34000000019025FE7401F0E8
:103CB000F5FFE5D554C070051237F15002C322E478
:103CC000F5FF53967F75FF0175D50412373775FFE1
:103CD0000143D508E4F5FF5394FBF5FF53847FF5CA
:103CE000FF7598FF9025F8E5F4F075F49C75FF01D9
:103CF000A3E5E4F075E4257B017A2579FED1E59012
:103D000025FEE064016002A1C2F5FF9025F774145E
:103D1000F09025FA51EEFF7801121DD39025FA128A
:103D20001E28E5A730E1FB43A7029025FA51EEFFDC
:103D3000E5A730E005E47B018002E4FBFAF9F8EF47
:103D40004BFFEE4AFEED49FDEC48FC9025FA121EB1
:103D5000289025F7E014F070B89025FA51EEFF781E
:103D600010121DC07B6D7A4E79C67841121C77EF18
:103D70002439FFEE34309119E4FBFA7901F8121D71
:103D800002EE547FFEE4FDFC1247849025FA51EECA
:103D9000FFEB6FFFEA6EFEE8CDEFCDCCEECCECFF93
:103DA0009025F4D1DCEF121B159025F4D1DC9000A6
:103DB00001ED121B2790120FE030E606E4F5FF75C7
:103DC000968075FF01E4F5D59025F8E0F5F475FFD0
:103DD00001A3E0F5E4124E729025FEE0B40103D396
:103DE0008001C322902706EFF0E4A3916F780112BF
:103DF0001DC0902706D175121E28901210E0FF6496
:103E0000806071EFC3947F5038EBD177C083C0825C
:103E100051EEFFEEC0E0EFC0E0901210E075F0044C
:103E2000A4AEF0FBCAEECAEA3395E0F9F8D0E0FFA1
:103E3000D0E0FEC3EF9BFFEE9AFEED99FDEC98807B
:103E40002B902706E0D177C083C082F13FFB901210
:103E500010E0F40475F004A4FFAEF0EE3395E0FD3D
:103E6000FCEB2FFFEA3EFEE93DFDE83CFCD082D0B2
:103E700083121E2822E0FB52E025E02401F582E4B3
:103E80003412F583227B017A267998229027371203
:103E90001E2875FF01902737A3E0FDA3A3E4FFFED2
:103EA000E4FC7810121DC08FE1902737A3A3E0FE39
:103EB000A3E4FFE4FDFC7808121DC08FE2902737D1
:103EC000A3A3A3E0FF8FE32275FF03902530E02238
:103ED000902530E0FF14F0EF22902744E0FBA3E0B0
:103EE000FAA3E0F922902763F138E9F07F017C1210
:103EF0007D01E4FEED2EF582E43CF583E02FFF0E1C
:103F0000EEB412F0901213E06F6009902763D1DCD9
:103F1000E4121B1522E5FA30E1FB75FC8075FF0108
:103F200053D5EFE4F5FC75FC40F131E5FC20E6FBF0
:103F30002275FF03E4F59122EBF0A3EAF0A322E05F
:103F4000F8A3E0F9A3E0FAA3E022E4F5FF75C2E1EB
:103F50007F1E12560A30E707E4F5FF75C2A122E47E
:103F6000F5FF75C28122902701EEF0A331C77FFFD4
:103F7000A3E0F9E9C3940C0523E9F19FE0FCA3E079
:103F80004C7016AF01902701E0FCF1CEA3E0902722
:103F900000F0124249E904FF220980D722E5617549
:103FA000F007A4242FF582E43424F58322F1EB50AA
:103FB0001412440CE0FCA3E0FD4C6009EFF19FEC0F
:103FC000F0A3EDF00EAF062275FF018FDA22A3E019
:103FD000FDA3E0FB2275FF0153D8EF22F1157F0806
:103FE000021AA733333354F8F5F422E4FE1FEFC36B
:103FF000940C229027057402F0E1669002B1E0640F
:10400000AA2411FFF022AE07123FFBEE04FEEF8E52
:10401000F084AFF02230260C902379E07006FF1276
:104020001A25C22611290219B23017241153FF9004
:104030000424E0FEEFC39E400AEF9ED3940240109A
:10404000C21722900424E0F42FD394014002C21737
:1040500022C2AD902483E0A3E0229002BAE0FCA348
:10406000E04C700A9002BAEEF0A3EFF0D322C32224
:104070009002BAE0FEA3E0FF4E6009CAEECAC9EFA3
:10408000C9121F2F22E4F557F558F559F55A75FF57
:104090000185FD5375FF0185C95475FF0185CA551A
:1040A00075FF0185CB5622EF11AEF0020000901291
:1040B00021F09027B922901221E0FFF460059027AB
:1040C000B9EFF074FF11AEE0FF22901221E0FE6420
:1040D000069027B96004EFF08008EEF0901221748A
:1040E000FFF09027B9E0FF22EFB40109D2AD75FFD0
:1040F0000143AE4022C2AD75FF0153AEBF2275C869
:104100000122E5C85402FF75C80222E5C85401FF28
:104110002275FF02D2ADD2BD75FF02758E71755F3B
:104120000975FF02E58E546F4480F58E22C0E0C011
:10413000F0C083C082C0D075D008C0FF75FF02E513
:104140008E30E42975FF02E58E54EF4410F58E9011
:104150000000E004F0E55F30E0020531E55F700B40
:10416000755F099024831227E48002155F75FF02B2
:10417000E58530E404318C5060D0FFD0D0D082D0BF
:1041800083D0F0D0E03275FF0253857F75FF024384
:10419000851022AB07AA063186ED4C70050DBD00D7
:1041A000010CD3ED94FFEC9403500AEDF586EC443A
:1041B00030F5858052D3ED94FCEC940F5017EDAEA2
:1041C000047802CEC313CE13D8F9AC06F586EC44BE
:1041D00034F5858032D3ED94F0EC943F5016ECC466
:1041E000F854F0C868FCEDC4540F48F586EC443828
:1041F000F5858013EDAE047806CEC313CE13D8F93F
:10420000F586EE443CF5859027935120D220E4F5C5
:104210006075FF0243854075FF02438580D21F22EF
:10422000AF03EAF0A3EFF0223186C21FE4F560C2CB
:104230002022301F0D3186E4F560D22075FF024345
:10424000858022E4F560C220229026FDECF0A3EDEB
:10425000F0AA07AF03EF70010FEF75F00AA4FFAEED
:10426000F0EA910DEEF0A3EFF0EA123F9FEEF0A31B
:10427000EFF0902700E0FFAE718DEFF09026FDE0AB
:10428000FEA3E0FFEA75F007A42433F582E43424AA
:104290005194F022F583EEF0A3EF2290253A121EFE
:1042A00028E4F5FF75BB0575BB8575FF0175D50263
:1042B000202A06123737123F4A75FF0143D52030B6
:1042C0002A026166E4F5FF538EF7438E077D04E40E
:1042D000F5FF8DBCF5FF43B102E5B130E2FBE4F53B
:1042E000FFAFDFEFFEACDEECFBEBFFED25E02438AB
:1042F000F582E434255194F0E4F5FFF5FF53B1FD68
:104300000DEDB40CCA90253A123AEEFF7809121D51
:10431000C0A3EEF0A3EFF0E4FDED25E02442F5822A
:10432000E43425F583E0C313FAA3E013FB7180F5B1
:1043300083E0C313FEA3E0132BFFEE3AFE7180511E
:1043400094F0ED240490120DF0EDC394075017CFB4
:10435000EDCF0DEF71819105FFC390253FE09F9058
:10436000253EE09E50B3E4F5FF758EC8F5FF901230
:104370000DE0F5BCE4F5FF57BB8075FF01F5D522D4
:10438000ED25E02440F582E4342522E56175F0074F
:10439000A42435F582E43424F58322900000E06003
:1043A00056E014F0E4F561E561C3940C50ED123F62
:1043B0009DE0FEA3E04E603B123F9D911B70347167
:1043C0008BE0FF6008F46005718BE014F0718BE006
:1043D0006011E561910DE0FEA3E0FF123F9DEEF05C
:1043E000A3EFF071F84E600871F8AA06F9121F2FBA
:1043F0001226A2056180B022E56175F007A424337E
:10440000F582E43424F583E0FEA3E022EF75F007A3
:10441000A42431F582E43424F5832274FFF5F012EC
:104420001BE645F022902302E0FF123FEB500F9174
:104430000CE4F0A3F0EF123F9FE4F0A3F00EAF0600
:1044400022121AADFF912AE4021B15902684121E37
:1044500091902684121E719141AE04AF0590268979
:10446000E0FDA3E0FB918E902684121E71EF121BDB
:10447000159026849184B4FF04E4121B15902684C1
:104480009184FF22121E71021AADE4FB7D01E490BB
:104490002705F0023F66A2AFE433FFC2AF9024834A
:1044A000E0FCA3E0FBAA04EF24FF92AFAE02AF034F
:1044B000221237F1500491C24003301703D3800118
:1044C000C322E5F754E024FF22AF14EFC36001D309
:1044D00022EFC3940E5005900415EFF022E5175417
:1044E0000FFF22E517C394F0501F5317F0B10CFED5
:1044F000740FC39F4005EE940E400543170D8003D3
:10450000EF4217E517540FFF227F0022E517C4542E
:104510000FFEEF9018E8932E22B10CFFC3940E40CB
:10452000027F0DEF9018CA93FF22EF30E303AF1321
:1045300022AD1B201804EE30E00BE517C394F050B9
:1045400020B17C8018E51A6006FDE4F51A8012E5BA
:1045500017C394F0500BE517540FFF6004B119AD69
:1045600007AF05224315015315DFB12AF13340048B
:10457000E4F514225315FB2135E9D322900415E00C
:10458000FDFFC3740EB1A6EFC4F8540FC868FFEE68
:10459000C454F048FEE51754F0C39FEE12339F7FDA
:1045A000005002AF05229FFFE49400FE2290273FB7
:1045B000EDF0901211E0FEF46006A3E0FDB4FF0CF4
:1045C0009027417418F0A37413F08008902741EEEF
:1045D000F0A3EDF0121AAD64016002E10D90273FE7
:1045E000E0FE64086004EEB404089027407428F0EC
:1045F0008006902740743AF0EF123AE1FF121DA1B5
:10460000E4F10EEF24D8FFEE343FFEED3493FDECE1
:104610003416FC7B007A807903780012184EF184FE
:10462000902742E0FF902741E0C3B1A6E4FCFD12D1
:104630001C77ECC0E0EDC0E0EEC0E0EFC0E09027FA
:1046400042E0FFE4FCFDFEF10ED0E0FBD0E0FAD04A
:10465000E0F9D0E0F8EB2FFBEA3EFAE93DF9E83C5F
:10466000F8902740E0FFE4FCFDFE121C77EF245495
:10467000FFEE340B123C914E7BA87A16F9F8121813
:104680004ECBEFCB90273FE014605D14601B24FEFF
:10469000600C24FC7077E4F5FF75CE318006E4F5FC
:1046A000FF75CE21F5FF8BCF22E4FAE4F5FFEA2473
:1046B00040F5CEE4F5FFEAFFC37407B1A674F72F07
:1046C000F58274183EF583E4F116C39DF5CFE4F549
:1046D000FFEA2448F5CEE4F5FFEA9018F7F1162D2D
:1046E000F5CF0AEAB408C422E4F5FF75CE01F5FF60
:1046F0008BCFF5FF75CE0EF5FFEB25E0F5CFE4F59A
:10470000FF75CE0FF5FFEB75F003A4F5CF227B64A8
:10471000FAF9F8021C779325E0FDE433FCEB75F021
:1047200010A4FFAEF0121B5BCDEFCDEBFFE4C31383
:10473000EF1322900437EFF0900414E024FD601191
:10474000047007F17A7404F08012F17A7408F08032
:104750000BE4900438F09004367402F07F01121AD2
:10476000A7900438E0FF900436E0FDA3E0FBE4905E
:104770002695F01239D0509ED3229004387401F05F
:1047800090043622C8ECC8C9EDC9CAEECACBEFCB3B
:1047900022E51754F0C4540F2FFFC3941040027F3A
:1047A0000FEF9018D893FF227E10EE60091EEE9056
:1047B00018D893B507F4EEC3940E40027E0DEE9028
:1047C00018CA93FF22E4F514E514702712561C1240
:1047D00037F15005C22F1233BE123FDC12361EE5F0
:1047E000D120E0FB4315205315FEE4F510A21692EC
:1047F000EDD322C322C2AFEF4215D2AF22EF24FE87
:10480000600C24FE600580007F01227F02227F036E
:1048100022E51520E50812361AE5D120E0FBE4F583
:104820001022301704C217112A22C221E4902766F1
:10483000F0C222A3F0A3F075FF01E5D520E702C383
:1048400022C23011F420210201E053F4DF902766E8
:10485000E0FF12362A75FF0143D81030220543F4D9
:1048600040800353F4BFE4F5FF53F5F0902767E071
:10487000FAA3E0FBEA42F5BEF5F6D23011F47FC8A8
:1048800012370BE4F5FFE59320E6051237A240F35B
:1048900030225FE5F430E3047D288010E5F430E257
:1048A000047D288007E5F430E1027D28123F317F46
:1048B0002812370B1237A240FB7F7812370B1237C2
:1048C000A2502F31A650F731CDEFC39D50F031A645
:1048D00050ECE5F720E5E7C23011F4123F3180DEFD
:1048E00053F4BF90120EE0D39401400643F420121B
:1048F0003FD5D322AFF4EF547FF5F4303005EF44C9
:1049000080F5F475FF01E5D520E702C322E5F4D375
:1049100030E601C322900445EFF0C23011F4D221F9
:10492000900445E0902766F0D222A3E4F0A3740D32
:10493000F01137E4900446F01237F15038900446F5
:10494000E07032E5F754C060EF318B319EBF5511F6
:10495000319E90121CE06F90044670147402F08037
:10496000D7900446E0B454057433F080CB900446ED
:104970007401F080C3900464E0B40207C22F1233C4
:10498000BE8000112A900446E0FF22E5F720E008EF
:10499000E5F754C070F5FF2243F701AFF922318BE0
:1049A000900446EFF02275FF01E5E43322E4FFE5D1
:1049B000F754C06002801675FF01E5D530E30D3174
:1049C000A650F431CDEF60EF31A650EB227108AF65
:1049D000D9225315FEE51530E5057F0112362A511F
:1049E0002EEF70FB7F02121AA77F01311590044C45
:1049F000EFF0BF0202801390044CE0B43311E4F0F6
:104A00007F013115BF020D90044C7401F08005E464
:104A100090044CF090044CE0700D1237F15005C238
:104A20002F1233BE123FDC90044CE024FF22E490AE
:104A3000273BF0A304F0E490273EF0E5FA30E1FBD9
:104A400075FF01E5D530E7037F0022E4F5FF75E54A
:104A500008123FD5E5D530E61A75FF0190273DE5F0
:104A6000DAF0E4F5DA75FF01E5D630E3FB90273E96
:104A70007401F075FF0375B90475FC4175FF03E51A
:104A80009B30E7FBE4FB75FF038B95123AE0FF12C6
:104A90003E8C0BEBB403EF75FF03759580E4F5FFD7
:104AA000758EC8123F4A75FF0153D5FB123F317F07
:104AB0001412370B12373E75FF0143D50490273E81
:104AC000E0700B123F317FC812370B12373E7B016B
:104AD0007A27793C711290273CE090273B7006E0E2
:104AE0004404FF8002E0FF90273BEFF090120EE0BD
:104AF000B4010675FF0143D81075FF0190273DE012
:104B0000F5DA90273BE0FF2275FF01E4F5EA75EA4C
:104B1000FF22C22975FF03759B1F75FF0390120FBB
:104B2000E0FF20E71BE59A540FC394024012EF44C4
:104B300080F0E4F5FF75C2A143FC0475FF03D229A0
:104B4000E5FC30E609E59A540FC3940540CCE5FC3A
:104B500030E611E4121B1575FC80F5FC75FC40E590
:104B6000FC20E6FB302903123C4D22900425E0A3F3
:104B7000E0FF22900442EF0FED24FE60191460263E
:104B80002402703BEB2402FFE43AFE7C007D5012CD
:104B90001B497D60801E71E7C333CE33CED8F9FF49
:104BA0007C007D28800E71E7C333CE33CED8F9FF69
:104BB0007C007D64121B5B900443EEF0A3EFF09049
:104BC0000442E071F2C083C082121E1C900444E0D3
:104BD0002401FF900443E03400FEE4FCFD121C5C61
:104BE000D082D083021E28EB2401FFE43AFEEF7846
:104BF000032225E025E02418F582E43404F583221D
:104C0000EF71F2121E00021DE6E49004189120E4F8
:104C100090041C9127E4FFFEFDFC900420021E2856
:104C2000FFFEFDFC021E28FFFEFDFC021E28E4FF25
:104C300075F0E5EF900001121E65E4F00FEFB4038C
:104C4000EFE4F56222900447EF91BBFEFD75F0E5BD
:104C5000ED1227F5FC700C900448E0B4FF02EDF073
:104C60000F8006EC30E0027E010DEDB403DF90040E
:104C700047E06401600DEF3C94025007EE7004A31E
:104C800074FFF0900448E0FFC39403501FEF122F0D
:104C9000107DE5E4FF121958900447E04410FFA38B
:104CA000E0FE75F0E591B3F0EE022F107B007A0084
:104CB000790022900001121E65EF22F0A374FFF02C
:104CC000E4FF22E4021B15121AAD540F021B1580DB
:104CD000F6EF7011ED600775FF0143AE012275FF1D
:104CE0000153AEFE22EFB40110ED600775FF0143E2
:104CF000AE022275FF0153AEFD2275FF02E5E630DC
:104D0000E2037F0322E5E630E3037F0022E5E6309D
:104D1000E1037F0422E5E67F0530E0027F0122EF18
:104D2000600775FF0253E6BF2275FF0243E640228B
:104D3000EF14600F146014240270188B8075FF014B
:104D40008DFD228B9075FF018DC9228BA075FF010F
:104D50008DCA22AF038FB075FF01AF058FCB2290B4
:104D6000268C121E91EF14601414601E240270270A
:104D7000B1A5E580B1AB12E171E5FD8025B1A5E5F6
:104D800090B1AB121E71E5C98018B1A5E5A0B1AB19
:104D9000121E71E5CA800BB1A5E5B0B1AB121E7150
:104DA000E5CB021B1590268F021E71121B1575FF95
:104DB0000190268C22E4F5FFAF9122E4F5FFAF923B
:104DC00022E4F5FF75D102E5D120E0FBE4F5D1F551
:104DD000FFEFB1E2EE540F42D6E4F5FFCFEDCF8FF7
:104DE000D422F5D7E4F5FF53D6F022E4F5FFEFF532
:104DF000D8E4F5FF53D60FEE540FC4F854F0C8E4CE
:104E0000C4540F4842D622E4F5FF8FD422E4F5FFC4
:104E1000E5D1540133333354F8FFE4F5FFE5D354BF
:104E2000074FFF22EF30E00E43F401E4F5FF43A407
:104E300004F5FF759624EF30E10E43F401E4F5FF2D
:104E400043A408F5FF759624EF30E20943F402E429
:104E5000F5FF75961EEF30E30943F404E4F5FF75A2
:104E6000961075FF01EF5403600475D7122275D7B1
:104E70002D22E4F5FF75846EF5FF439404F5FF756C
:104E8000981422E4F5FF75933F75FF03759A40D19E
:104E900072E4F5FF759C93F5FF75A1A3F5FF758589
:104EA00031F5FF758628E5FA54304480F5FA75FF30
:104EB0000175E74A75FF0275DF4975FF0143D304A9
:104EC00075FF0153D367E4F5FF53E6BF75FF017526
:104ED000D825F5FF75B503F5FF75B215F5FF75BA61
:104EE00002F5FF75AFB3F5FF75CD0AF5FF75CB0879
:104EF000F5FF75CA12F5FF75BF0EF5FF75CC96F577
:104F0000FFF5BDF5FF75C281F5FF75AEE1F5FF75E3
:104F1000DA55F5FF75F580F5FF75E903F5FF75E9DD
:104F200033F5FF75972A75FF01759B42759CA47533
:104F30009D29759E48759F2475A11275A312759AB7
:104F4000F8202C0CF5FF43968090120FE04440F0BF
:104F500022CCEFCCCFEDCF74017E00C8EFC8088023
:104F600005C333CE33CED8F9FFCDECCDEF5D601B5A
:104F7000302B1875FF0175CDAD75FF0175DDCDE4E2
:104F8000F5FF759A74F5FF7594842275FF0175DC41
:104F90005375FF0175DD33E4F5FF759A14F5FF7560
:104FA000940422F1C253DB7F75FF0175D5027F1493
:104FB00012370B12373EF1C243DB8075FF01E4F577
:104FC000D52275FF01438E1075FF012275FF017513
:104FD000E46575FF0175D6472275FF01E5D530E61A
:104FE00002C32253FACFEFB4080543FA308012EF20
:104FF000B4040543FA208009EFB4020543FA108097
:1050000000D322E5F45418131313541FFF22E5F7BD
:105010005406FFBF06037F0822E5F75406FFBF04CE
:10502000037F0422E5F75406FFBF02037F02227FBD
:10503000012275FF01E5D520E602C322E5FA5403FB
:1050400060FA75FF018FC3D322CEEFCE75FF01E565
:10505000D520E602C32243FA04E4FDEDC39E5007C7
:105060007F5511320D80F4E5FA543070047F0F80C3
:10507000027FF01132D3225EF71322E5F754C024E9
:10508000FF22E490251FF07B017A2579061227FD87
:10509000902508E0FBB4112290251B121E3400005D
:1050A0007800902517121E34000060009024FC74D4
:1050B00018F0A3E4F0A3F0A380277412D39B502729
:1050C00090251B121E3400020000902517121E347A
:1050D00000020000E49024FCF0A3F0A37418F0A3F5
:1050E000E4F090251F04F090251FE0FB6017E4FF1B
:1050F000FE7D02FC902508E024EFF9F8121DD39004
:105100002500121E28AF03229027B3EFF0E4A3F08E
:1051100090251FE06029E4FFFE7D029025003145C7
:10512000700851477E777D00800A71EB501151471E
:105130007EFF7D017C00122496E4339027B4F0902A
:1051400027B4E0FF22FC121E1CC3021DAF902628CC
:10515000121E9190262BECF0A3EDF090251FE0702D
:1051600002411AE4FFFE7D02FC9025003146704C9E
:105170005134314650465125A3512EE4FB7A18F99B
:10518000F8C3121DAF503590262D121E1CC3E49B90
:10519000FF74189AFEE499FDE498FCE49026298FA8
:1051A000F0121BE6C390262CE09FF090262BE09493
:1051B00000F090262D121E3400001800513D512E93
:1051C000A804A905AA06AB075152121C5C90250041
:1051D00071FB404171EB4023E4513431464036903D
:1051E000262BE0FEA3E0FBE49BFF74A09EFE74016F
:1051F0009400FDE49400A33145501A513D512EC056
:1052000007902628121E7190262B9111D00712307C
:1052100004E4338001E4902631F0902631E0FF224F
:105220009024FEE0FEA3E0FFE4FCFD90251B121E8F
:105230001C021C5CFF7E18FDFC90262D2290262D62
:10524000121E00902517229027B3E09026FBF07FD6
:10525000FF2290262BE0FEA3E0FFE4FCFD22902736
:1052600090121E915120EF2408123C8E7B017A256A
:10527000790471B97402F0212614902504515590D7
:105280002517512E7B017A25790971B9740EF01218
:10529000261471C0EE3480123C9171AC90250B71D4
:1052A000CA7F0F7E1D719871B2C006C00771C0E43D
:1052B0003E71D771AC90250D71CAD007D006719898
:1052C00071B2C006C00771C0EE348071D771AC9066
:1052D000250F71CAD007D006719871B2C006C007F9
:1052E000512071AC90250AE02400FE902509E0349D
:1052F000E890248BF0A3CEF0D007D0067198121C52
:105300001245F0C37001D322902485EEF0A3EFF094
:10531000A3121E0090248D121E2890248BE0FFA360
:10532000E0902491CF8062902491E0FEA3E0FF4EB4
:10533000605DC3EF9440EE94004006A37440F0809B
:1053400005902493EFF071E0FF71B9EFF090248D98
:10535000121E00122614902493E0FFC3902492E0C2
:105360009FF0902491E09400F090248D121E1C90E8
:105370002493910290248D211E28718F71E0910950
:10538000EDF01219D0902485EEF0A3EFF080989004
:105390002485E0FEA3E0FF227108902790121E7181
:1053A000EE8FF0121C3D902790021E719024870210
:1053B0001E28121C12FFAEF022902642E4F0A32217
:1053C000902517121E00E42FFF22E0FFA3E0902497
:1053D0008BCFF0A3EFF022FEED3401FDE43CFC2284
:1053E0007B017A247994902493E022902500121E68
:1053F00000E4FBFA7904F8D3021DAF121E1CD3029D
:105400001DAFE4FCFDFE021C5CFD90266BE4F0A3E6
:1054100022E0FFA3E09025F0CFF0A3EFF022EF60B1
:105420000A75F28075F24043F14022E5F130E7065B
:1054300053F17F43F180E5F130E308E5F230E7FB1B
:1054400075F2C022E5F130E70653F17F43F1802287
:10545000EF600443F1802275FF01E4F58E53F17F84
:1054600022EFB4080C75FF01E58454FC4403F58475
:1054700022EFB4040C75FF10E58454FC4402F5845B
:1054800022EFB4020C75FF01E58454FC4401F5845D
:1054900022EFB4010675FF015384FC22E5F130E4EC
:1054A0000F75FF0175FF015385F075FF018F86228F
:1054B00075FF01EF540FFDE58554F04DF58575FF3F
:1054C00001EEC4F854F0C8EFC4540F48F58622EF3B
:1054D0006003D2EA22C2EA2275F24022E5F2C3302A
:1054E000E601D322E4F55DF55EE5F230E72675F2DC
:1054F00080E5F1AFF330E407755D008F5E8010EF5B
:1055000075F010A4F55E85F05DE5F2540F425EAED5
:105510005DAF5E227EFF7FFF22EF600775FF0143D4
:1055200084042275FF015384FB2275FF0153853FDC
:10553000EF428522EFB4010443F1102253F1EF2230
:10554000EFB4010443F1042253F1FB22EF60044362
:10555000F1012253F1FE22EFB4020343F108EFB44C
:10556000010353F1F7EFB4030543F101803FEDB4BC
:10557000040875FF014385028014EDB40107B1B141
:105580005384F78009EDB40205B1B1438408EBB44C
:10559000100875FF015385EF800AEBB4200675FFF4
:1055A0000143851075FF01902762E0F58E43F1807D
:1055B0002275FF015385DF75FF0122121E71E92458
:1055C00001F9E43AFA22EEF0A3EFF0A3021E917B78
:1055D000017A12791C9026C5121E917A0222E0FCF3
:1055E000A3E0FDD39FEC9E22A3F0E4A3F0A322F05E
:1055F000A3F0A3F0A322E5122407F582E4351122DB
:10560000E4F5FFE5D25480440A22FE1236C9901216
:105610000FE022E5D254804414F5D222C2EBA2ED71
:105620009216C2ED22FFFFFFFFFFFFFFFFFFFFFF0C
:10563000FFFFFFFFFFFFFFFFFFFFFFFFFFFFFFFF7A
:10564000FFFFFFFFFFFFFFFFFFFFFFFFFFFFFFFF6A
:10565000FFFFFFFFFFFFFFFFFFFFFFFFFFFFFFFF5A
:10566000FFFFFFFFFFFFFFFFFFFFFFFFFFFFFFFF4A
:107FB000FFFFFFFFFFFFFFFF7FC607F9318C0001C6
:107FC000001E010A7AA4FFFFFFFFFFFFFFFFFFFF74
:107FD000FFFFFFFFFFFFFFFFFFFFFFFFFFFFFFFFB1
:107FE000FFFFFFFFFFFFFFFFFFFFFFFFFFFFFFFFA1
:107FF000FFFFFFFFFFFFFFFFFFFFFFFFFFFFFFFF91
:108000007B01E4FF902769121E91AE051DEE601002
:10801000902769E475F001121E7AEF121B1580EAB1
:1080200022712A4AC36001D340026118E924B77162
:1080300022FF7B017A2779BF12BFD930010B712A49
:108040002402712230E50221AD712A24B67122FF8B
:1080500090121CE06F703B712A24B7712230E73216
:10806000712A128801128FF9540764037024712A4F
:1080700024B97122D394400519712A12880112BAC9
:108080000312BF9944047132712A24BB7122441037
:1080900021A8712A24B7712230E721540F6401709E
:1080A0001B121AAD30E70F712A24BB712230E4068F
:1080B0007E007F0180117E007F00800B712A24B733
:1080C00071225410FF7E00EF4E601A712A24037152
:1080D0002254FB121B15712A128801121C1254F82B
:1080E0004403129F9E712A2402712220E20221ADD4
:1080F000712A24DF7122D39403400221AD712A2416
:10810000037122FF30E431712A12B74EEF54EF129F
:108110001B15712A2406F9E43AFA128FF9712A1212
:10812000880112BA09EF54076402C37001D312BB6D
:108130007E9027BFE04F610B712A24DF7122D39418
:1081400002500C712A24BA7122FF12AF54801C9085
:108150002015E09021046008E004FF12ADD78006EE
:10816000E004FF12AE93902104EFF0712A128F67A2
:108170007403121B15902140E0F460071288085028
:1081800002610D712A24DF7122C39404501F712AE9
:10819000128801128FE67001D312BB7EEF44017189
:1081A00032712A128F677404121B15610D3001029F
:1081B0006113712A24DF7122C39405400261137197
:1081C0002A2403712220E0026113712A24B671224D
:1081D000FFC007712A24BA7122FD712A12BF4EC056
:1081E00003C002C001712A24B17122902652F0719D
:1081F0002A2402712254034401902653F0712A125A
:108200009DB5121C12FF902654E5F0F0A3EFF0D0BC
:1082100001D002D003D0071288D7EF700261131289
:1082200089B3240571224420FF1289B324141288D3
:10823000CF1289B312BF7E1289B012BFA111049070
:108240002283121E717405121B1590228312334370
:1082500012BF6E712A12BF59712A129DB5741A7518
:10826000F02A121C3D712A128801121C12AEF05421
:10827000F812BA08EF12BA601289B324047122FF0F
:10828000712A24021288CF1289B324067122FF7446
:1082900040C39F5008712AF1F1742F80167411D3D6
:1082A0009F500BEF24EFFF712AF1F1EF8005712A47
:1082B000F1F1E4121B15712A24B17122FF712A1207
:1082C000BF4EC003C002C0011289B3241C128F32FA
:1082D000D001D002D003128F42712A128FBF7B01CE
:1082E000C003C002C0011289B3128FD67B01128F66
:1082F00036D001D002D0037F11128F42712A128F23
:10830000677405121B1512BF9944067132129F8AB9
:10831000024CC7E4FF1298DB22902614121E71E96A
:108320002407F9E43AFA021AADFE9026E1121E7112
:10833000E922FF9026E1121E7190270B121E91EF89
:10834000540FFEF14624B8712254F0FDEF54F0FFB3
:10835000C4540F4D121B15EE14605F147002C13C23
:1083600024FE7002817824FE7002C1A824036002FA
:10837000E12FF146128FBF0C03C002C001129F8093
:10838000128F36D001D002D0037F04128FEFF14656
:1083900024B6F9E43AFAEFF14312C6D97403F14373
:1083A00024B8712254F012BF764FF14312D0E47416
:1083B0000AF14312C6E07409E12C128F6EF14612E5
:1083C000C6D97401F1432402712230E02320E70270
:1083D000800A90210EE0540FFFBF0F0BF14624B727
:1083E00071224440121B15F1461255BF74038007D9
:1083F000F1461255BF7401121B15F1462402712279
:1084000030E10BF14624B771224420121B15F146CE
:108410002403712230E20BF14624B771224410127A
:108420001B15F1462402712230E70BF14624B77187
:10843000224480121B1590121DE0FF7E0030E502E1
:108440007E20EF7F0030E4027F40EF4EFFF14624B4
:10845000B87122549FFEEF54604EF14324BA71224A
:10846000FFF14624D91288CF7F09F14624B1712249
:10847000F13012C6E0EFE1C2F1462402712220E69B
:1084800002A116F1462409712212D10E90270FF095
:108490007404C39E500B7404F0EF540F4440121B3D
:1084A0001590270FE02402FFF14612C6E7C003C073
:1084B00002C001F1462408128F32D001D002D0034D
:1084C000128F42F14624B17122FF90270FE024035E
:1084D000FDE43312339A4036121AADFF90270FE0B5
:1084E000FE2403FDC3EF9DFFF14312BF4EC003C046
:1084F00002C001EE240AFDE433FCF1462DF9EA3C0A
:10850000128F35D001D002D003128F428008F1467D
:10851000F1F1E4121B15128F6EF14612C6D97401E7
:10852000121B154480F1432402712290270B30E086
:10853000071255BB740380051255BB7401121B153D
:10854000F14612C6E7E4F1432403712230E20BF155
:108550004624BB71224410121B15F14612880112E9
:108560001C1254607002A1EEF14624B67122FF90F5
:10857000121CE06F7078F16424BB7122FF20E06E62
:10858000F1462403712220E465F14612C6E7EF4468
:1085900008F14324BC712290270B12D04124BD1254
:1085A000C101E4F14324BC7122C4540FFFF14624FD
:1085B000BD12C101121AAD4410F143128801121C00
:1085C000125460FFF14624BC7122C4540FFD7C009C
:1085D000F1462DF9EC3AFAE924BEF9E43AFAEFF162
:1085E00043128801121C12549F129F9E800BF14669
:1085F00024BB712254F7121B15F14624BB712230A3
:10860000E31DF14624BC7122C4540FFF7E00F146E5
:1086100024BD12C101121AADC4540F04FF80027FA1
:1086200000F14624BC7122C4540F240B2FFFF146E5
:1086300024B17122F13012C6E0EFE12C128F6EF1FD
:108640004612C6D97402F1432402712230E10BF1C3
:108650004624B771224420121B15F14624BAF9E4CE
:108660003AFA741DF14312C6E7C003C002C001907C
:10867000200A121E71128F63D001D002D0037F1D19
:10868000128F42F1461255BF7401121B157F26F15D
:108690004612C6E0EFF14324B17122FEEF042EFF33
:1086A000F14612D0E4EFE12CF14624B87122540FC8
:1086B00090270EF0F1462402712220E642128F6EBE
:1086C000F14612C6D97405F1432402712230E10B40
:1086D000F14624B771224420121B15F14624B871CB
:1086E0002254F0FF90270EE04FF143240271223014
:1086F000E016F14624B771224440121B158009F19F
:1087000046F1F174FF121AF3F1461255BF7401F1EC
:108710004312C6E07411F14324B17122FFF14624E3
:10872000D871222F04FFF14612D0E4EF121B15225C
:10873000FEEF042EFE90270B121E71E924B9F9E416
:108740003AFAEE121B1590270B121E71E9229026A1
:10875000E1121E91E924017122D39401403912B82B
:10876000B99026E5EFF07E1A7F4D712A24B7712269
:1087700030E719712A24BB172220E010712A24BC8B
:10878000712212D0F4B504047D07803F712A24B110
:10879000712212D1068034E49026E5F07E1A7F4DD6
:1087A000712A24B7712230E719712A24BB71222063
:1087B000E010712A24BC712212D0F4B504047D07A4
:1087C0008009712A24B1712212D1067C0090279B66
:1087D000EEF0A3EFF09026E07401F0AE04AF0512C6
:1087E000B7FCAC06AD0790279BE0FEA3E0FF02417B
:1087F0009324B1F9E43AFA2201FF90255A121E712E
:10880000E92404F9E43AFA22902104E0F470020128
:10881000C67880E6FF12832A24BA11CF12832A1168
:1088200001121C125418FD12BFAC12832A1101E46C
:108830008FF0121C3D121C12FFEF4D129F9E78818B
:10884000E6540F90279EF06038E0FF7404C39F4009
:108850003090279D7404F012832AF1C6C003C00231
:10886000C0017B007A007982F136D001D002D003BA
:10887000F14290279EE09062E1F1DD24BC11CF80AF
:108880000690279D7401F090279DE064047011E02C
:108890001283291101F1E67001D39223D2248012B0
:1088A00090279DE01283291101F1E67001D39223F4
:1088B000C22412BB82EE4F90279DF0D20390279DD9
:1088C000E0128332D322C322FF121E71E92408F979
:1088D000E43AFAEF021B1590264DEFF0A3EDF0A35A
:1088E000121E91902652E0D3942F400221AD12CD5A
:1088F0005D8F32EFC39402400221ADEF12D061745C
:108900000131B01255BFE4121B1590264DE0FF3126
:10891000B3240F11CFFF31B3240211CF90264EE0C4
:10892000FF31B3241311CFFF31B3240311CF9026AD
:1089300053E012D10E31B32405F9E43AFAEE121BDA
:1089400015EF540FFF31B3240411CF902652E0FFEE
:10895000602990264F121E71EA494B601E31B324E4
:108960001CF9E43AFAC003C002C00190264F121E5F
:1089700071F136D001D0020D03F14231B32416F962
:10898000E43AFA74FA121B15902652E02411FF31D2
:10899000B3240611CF902654E0FEA3E0FF31B324A8
:1089A00009F9E43AFA12BA09E53204FF227F0022FB
:1089B000121B15902283121E71E92290275B121E52
:1089C00091121E9AE92409128322541FF535B156DB
:1089D00012831FFFE5306401601C7412D39F501690
:1089E000E535B402067419D39F500BE535B4010880
:1089F000741DD39F4002C322B156E9240A12832278
:108A000030E21CB156E92408128322FF90121CE0C8
:108A10006F600CB156E92404128322FF12A22BE5E9
:108A2000356402600241DB90275B12831C30E70251
:108A300041D9B156E92408128322FF90121CE06F3D
:108A4000702A20140241D9C214B156E924041283B9
:108A500022FD7F0312CC04B156E92404128322FFC5
:108A6000D231B156E9241312A8A0806DB156E92481
:108A70000C128322FF540FEF605FB156E9240DF909
:108A8000E43AFA1E7C00E92E129F5EFD90121CE073
:108A90006D7046B15612831F6419703DB156E924BA
:108AA0000CF9E43AFAEF54F024102E121B15B156CB
:108AB000F1D5E4121B15B156F1367F18F13CC20313
:108AC000B156E92404128322FFB156E92408128327
:108AD00022FD12D04CF012BBDBC322E4FFB156E9F9
:108AE000240D12D0FD129F5EFE90121CE0B506020E
:108AF000C3220FEFB404E6B156E92404128322FF27
:108B0000B156E92406128322540FFD12CCB4500250
:108B1000C322B156E92408128322FF90121CE06F91
:108B20007002816F90121DE0FF54306002816FEF80
:108B300020E002816FE5356401600990275B1283B4
:108B40001C30E71F201302816FE53564016002814C
:108B50006FB156E92411F9E43AFEAF0112A7EE40D5
:108B600002816F12CD5D8F32BF0202C322B1561255
:108B7000831FFF7440C39F0502C322E535B4011D66
:108B8000B156E92411F9E43AFA7B01C002C0017A36
:108B90000279B6F136D001D0027F04F142E53212FB
:108BA000D061B15612831FFF31B3F1D6C003C002AA
:108BB000C001B156F136D001D002D003F142B15616
:108BC000E92404128322FF12CCFFB156E9240612D5
:108BD0008322540FFE12CCF6A606F1CDF8760708D4
:108BE00076D0B156E9240C12832254F090275EF01F
:108BF000607DE0FF7440C39F4075E024F0F031B326
:108C00002417128322540FFF7404D39F40619012E3
:108C10001CE0FE31B3241812D0FDF9EC3AFAEE1242
:108C20001B1590275EE02F04FF31B3241711CFB13D
:108C300056E92404128322FF31B3240211CFB15626
:108C4000E92408128322FF31B3240311CF90228339
:108C500012CA119022831287FD7440121B15B1565F
:108C600012831FFF31B3240611CF31B312D0BEB12E
:108C700056E92408128322FF90121CE06F6006EF71
:108C8000F46002A15290275B12831C30E702A152CC
:108C9000E5356002A152B156E92411F9E43AFAC06F
:108CA00003C002C00190275B12B74A121EBAB15628
:108CB00012831F24EEFF90275B12BF4211CF902733
:108CC0005B12831C4401121B15B156E92405128363
:108CD0002230E677B156E92404128322FFC231B173
:108CE00056E9240C12A8A0B156F1367F11F13C9040
:108CF000228BE054BFF0B156E92404128322902263
:108D000097F0B156E92406128322540F902298F06E
:108D1000B156E9240CF1327B017A2279997F05F171
:108D2000EF90228AF090228D7419F0B156E9240454
:108D3000128322FD90228EF0A37422F0A37407F018
:108D4000C20312D04CF012BBDB8009E535C37001C1
:108D5000D322C322D32290275B121E71021E9A9047
:108D60002552EBF090255D7401F090255FEFF090B7
:108D70002557E0FE54C070C3902556E0FCD3949F65
:108D800040037F0022902552E0B4FF09ECD39436D3
:108D900040037F002230060C902556E0D3942E40ED
:108DA000037F0022EE20E40C902556E0D3949740F8
:108DB000037F0022F12724B6F9E43AFAED121B15DD
:108DC000902552E0F12624BA11CFF127F167E41281
:108DD0001B1530060CC20690255A12B74A74018042
:108DE0000F902557E030E60BF1B4F127F1677405D9
:108DF000121B15902557E05490705A90255DE06441
:108E000001705290255A121E7112B8DEEF604612A0
:108E100087FA121C125460600E90255A12B68B12FB
:108E200083224410121B15F12724BC12832254F014
:108E30006002F1B4F127F1677402121B1590255FEF
:108E4000E05498F0E0FF1287FA121C125467FEEF0C
:108E50004E90255FF0902552E0FDB4FF0790255716
:108E6000E054FAF0F12724DF128322707090255726
:108E7000E0540564057066FA0512AF54505812BFED
:108E8000AC90255FEFF07881E6540F90255EF0609E
:108E900031E0FF7404C39F4029F127F1C6C003C02D
:108EA00002C0017B007A007982F136D001D002D075
:108EB00003F14290255EE090255AF1DD24BC11CFEC
:108EC000F1B4F127F1677403121B157880E6F126DF
:108ED00024BA11CF8007902557E054FBF0F12724E6
:108EE000DF12832270057404121B1590255FE0FFCA
:108EF00090255DE0FD902556E09025AFF090255738
:108F0000E09025B0F0902558E0FBA3E09025B1CB90
:108F1000F0A3EBF090255A12C48A902553121E71CB
:108F200012BA0F7F0122FF90255A121E71E922E921
:108F30002403F9E43AFA9026A4021E917B017A22D6
:108F400079869026A1121E91AE071FEE601890261A
:108F5000A4E4122749FE9026A1E475F001121E7ABE
:108F6000EE121B1580E22224DFF9E43AFA22902760
:108F70000B121E71902775211E9190277530051DCB
:108F8000F1BBC003C002C0017B017A2179B4F13684
:108F9000D001D002D0037F04F142C20522F1BBC050
:108FA00003C002C001129F80F136D001D002D0036D
:108FB0007F04808E90255D7404F022121E71E924D6
:108FC000B2F9E43AFA2224BDF9E43AFA22EF25E0B4
:108FD00025E0243822E9240BF9E43AFA22C454F0BB
:108FE000FF121E71E922121C1254076402C322F1FF
:108FF0004290121CE0FF221100121C12FFAEF02260
:109000000224579026C2121E9112CA0A9026C51237
:109010001E71EF121B159026C2121E71E94A600CD8
:109020009026C2129F9712D02712275C22902614F6
:10903000121E91121E9A90261B121E919026141237
:109040003343E4121B15C204902016F012D0D7123D
:109050008F367B017A2079047F04128F42202713F8
:10906000129F8012A83C12A7E46008128319448062
:10907000121B15128319307E6A90121CE060333087
:109080001330F1B02405128322540FFF640560539E
:10909000EF6401701D121AAD30E717F1B0240A1207
:1090A0008322F1AA12C0FF12B74D129F7A12A7E8CD
:1090B0006031200E02C1E7201029F1B0240512838F
:1090C0002220E71FF1B012D0752401128322B403CD
:1090D00012F1B02409F9E43AFA12B74D12A7DC7084
:1090E00002C1E7F1B02406128322540FFF90200240
:1090F000E07E00B402027E80EF4E9021B3F0128336
:109100002A4A604AE924B7128322FF7B017A267932
:109110001712BFD912832A128801121C125407FF9A
:1091200012832A24B8128322540FFE902617E0548B
:109130000FFDBD04047D4080027D00EE4DFEEF7FFB
:1091400000B402027F80EE4F902009F0800690204C
:109150000974FFF0F1B02405128322FF540F24FE9E
:109160007002C113147002C1B524FE7002C1DC2468
:10917000046002C1E79026B112831CFE740AD39EDC
:1091800040028029EF20E702A1B39021B3E04440E0
:10919000F0F1B0240A128322C4540F902618F06014
:1091A0000CE0FFD394045005740B9E400A902614E3
:1091B000123343E4021B15F1B0240912832230E17B
:1091C0002630E32390261B12831CFDEF240DFFE4C1
:1091D00033FEC3ED9FEE12339F500CF1B024091201
:1091E000832254F7121B15F1B02409128322902612
:1091F0001B30E35012D0DD128322F1AA12C0FF12FD
:109200001AADFFC4540F29F9EE3AFA1255BEC00345
:10921000C002C00112B747121EBAF1B0240A12836D
:1092200022C4540FFFFD7C00F1B0240BF9E43A1284
:109230009F5BC4540FFE90261B12831CC39FC39ECA
:1092400024F3802C12D0DD128322F1AA12C0FFC0B9
:1092500003C002C00112B747121EBAF1B0240A12AD
:109260008322C4540FFF90261B12831C24F4C39F37
:1092700012BF3E1288CFF10B2408128322FF9012F6
:109280001CE06F6002619EF1B0240A128322540F29
:10929000FF902618E06F6002612F902003E06002CB
:1092A000A114F1B0240512832290261430E607128F
:1092B000831C440D800512831C4409121B15F1B058
:1092C000128FD67E0012C105E924FFF9EA34FFFAB5
:1092D000121AAD9026141288C812831930E702A121
:1092E00014F1B0240512832220E702A114F1B02466
:1092F0000A128322C4540FFFF1B012C0FF121AAD3C
:10930000D394014002A114E9240112832264036072
:1093100002A114F1B0240A128322C4540FFFF1B049
:1093200012C0FF128F2F7B0112D0EBD205A114F1D6
:10933000B0240A128322540F640F6002A114F1B00A
:10934000240512832230E6081283194404121B15E7
:1093500012C26A501BF1B0240A128322C4540FFFB8
:1093600012D0D712C08B50081283194401121B155A
:10937000F1B02409128322FF30E10712831944203F
:109380008009EF30E2081283194440121B15F1B036
:10939000240B12832290261412BF49EF81ABF1B047
:1093A000240A128322FF540FFDEFC4540FFCEDC3B7
:1093B0009C400281B0F1B012C10C12D0A76F6002C4
:1093C00081B0F1B0240912832230E05D12C26A50EC
:1093D0000912831912D09E7405F0EC1490261BB567
:1093E000050512C1FD800A121E71E912C10CE924A3
:1093F00001128322FF9026141288C9ED6002818435
:10940000F1B0240912832230E37AF1B0240A1283E6
:1094100022F1AA12C0FF121AAD540F7067E924019D
:109420001283225418605D8053ED90261B70081241
:10943000C1FDF9E43A800E121E71E912C10CE92453
:10944000FFF9EA34FFFA121AADFF9026141288C908
:10945000EC146D702FF1B0240912832230E325F152
:10946000B0240A128322F1AA12C0FF121AAD540FBF
:109470007012E92401128322546060081283194497
:1094800004121B15902003E06008902016E0700283
:10949000A114F1B0240512832290261430E607129D
:1094A000831C4414800512831C4410121B15806415
:1094B000F1B0240A128322540FFD12C26A5055F1F2
:1094C000B0240912832230E023ED2402540FFDF171
:1094D000B0240A128322C4540FFFEDC39F5035F10C
:1094E000B012C10C12D0A76F702A801FEDC3940276
:1094F0004022F1B0128FD6ED24FEFFE434FFFEE9E6
:109500002FF9EA3EFA12D0A7B5070912831912D033
:109510009E7401F0F1B02404128322FF90121CE02B
:109520006F603012832A4A7002C1E712832A128FB9
:10953000BF12A83C12D0D712A7E86002C1E712837D
:109540002A24B6128322FFF1B024041283226F6012
:1095500002C1E712C26A4002C1E7F1B0240A1283D5
:1095600022FF540F1283294A7002C1E7E924BA127C
:109570008322FDF1B024082183226D6002C1E7F14E
:10958000B0240912832230E018EFC4540F24FE5493
:109590000F6E6002C1E712831912D09E7403F0C1EE
:1095A000E7EE64016002C1E712831912D09E7401D4
:1095B000F0C1E7F1B02408128322FF90121CE06F83
:1095C0006006EFF46002C1E71283194401121B1513
:1095D000F1B02404128322FF9026141288C9F1B03E
:1095E0002409F9E43AFAC003C002C00112B74712D5
:1095F0001EBA90261B12831C24F612BF3E1288CF7F
:10960000F1B0240512832220E602C1E71283194437
:1096100004C1D7F1B02408128322FF54E0FD901258
:109620001CE0D39D5002C1E7EF541F75F008A47CE5
:10963000002DFFEC35F0FEE0D39FEE12339F400289
:10964000C1E7F1B0240812832254E0FF90121CE01D
:10965000C39F14FFF1B02409F9E43AFAEF12CDE206
:10966000129F5EFEEF540712AD8C8002C333D8FC0C
:109670005E60741283194410121B15F1B024081295
:109680008322541FF1AD240912C101C003C002C0DE
:109690000112B747121EBAF1B02408128322541FD8
:1096A000FF90261B12831C24F6C39F12BF3EF9E4D1
:1096B0003AFAEF802212C28B6009902009E054BF71
:1096C0006F7024F1B02408128322FF90121CE0B5C1
:1096D00007151283194403121B15800B90261412D0
:1096E0001E711289BB9204F1B02405128322FF542B
:1096F0000F64016002E1A1EF90261B30E71412D045
:10970000DD128322F1AA12C0FF121AAD90261AF0C0
:109710008015121E71E9240912832290261AF0A3E3
:10972000121E7112BECEFAE924011283229026196C
:10973000F0128319FF300E6954E264807063902642
:109740001AE064017053902619E0640860533010E9
:1097500010F1B02409F9E43AFA12B74D12A7DC600F
:1097600030F1B012D0752404128322FFF1B012D070
:109770007524031283224FFFF1B012D07524051215
:1097800083224FFFF1B012D07524061283224F704E
:1097900008902619E06403600812831954EA121B2A
:1097A0001512831930E002D20422C4540FFF7E0048
:1097B00090261B121E71E92290276C121E917E00CA
:1097C0007F04122FF790276C129F9712AFEC74044E
:1097D000F012311E7F01227F0112CA32E49002B6DC
:1097E000124C27129F80E4FDF1B812CBEE7E007F71
:1097F00000C006C374079400FE7412940090267B88
:10980000F0A3CEF0124CACD00612311E1221FB1286
:10981000CB48124C2E1255CF79B602900312832AF0
:1098200024B7128322FF20E70201B6540F640160BF
:109830000201B612832A24B6128322FF90121CE082
:109840006F70732000709026E404F012832A24BB0A
:1098500012832230E34212832A24BC1283229026F0
:10986000E112D04124BD12C101121AAD540F70286B
:1098700012832A2FF9EE3AAFE924BE1283225460F4
:10988000601612832A24BC128322C4540F2404F1CC
:10989000527D6E7C0002B85AE4902008F012832AB0
:1098A00024BC128322C4540F75F03EA4FDACF07E9C
:1098B000197F8F0287CD12832A24B712832220E7D3
:1098C00016902104E0F46002D17812832A24B2F9C0
:1098D000E43AFEAF01D114F1387F019027C8EFF0D0
:1098E00012832A4AC36001D35037124CC3E4902636
:1098F000E4F012832AB1B5121C1245F0601A9027C9
:10990000C8E09026E16008B1B1D128E4FF8006B13B
:10991000B1D1287F01121F33124CAC9026E1121EE8
:1099200091229025FF12A8427B018B3F8A40F5418E
:10993000EDD394085002A18512831FFFEDC39F5001
:1099400002A185E4F546900413E0902002F0F1872F
:10995000D121E0B19DFF540F6401704CEF30E70F4F
:109960009025FFA3E0FF240AB1A112D02E8004F1BC
:10997000493540FA1255BE092607121E9190260756
:10998000124484FF601D64186019EF64076014EFCF
:10999000B40315902607F173F9E43AFAF17A12A7A5
:1099A000E870057FFE12A22B7B007A00793F1290AF
:1099B0002DB186902100F0E54644016062A202E4E8
:1099C00033F53EE4902605F0902605E0FFC39402AF
:1099D0005020EF12D0CAFF902100E0FEEFB5060A3A
:1099E000902605E024FF92028008902605E004F00E
:1099F00080D6902605E0B40206E53E24FF92029050
:109A00002002E0FDA202E43325E0FFE433FE74B05F
:109A10002FF58274213EF583EDF0A202B39202E5A8
:109A20004620E20241E47F01124C45902601F1906C
:109A3000700241E4B1A87F03128339B1BCB18C300C
:109A4000E40DB1A8E924B71283224410121B15B10A
:109A5000A8E91287F1E4121B1590260112BF559058
:109A60002601B1B1741975F07B121C3DB1A8E9242F
:109A7000BAF9E43AFAE547211B159026011287FD51
:109A8000121C12F1A6FDEF4DF19EB1BCB18C30E578
:109A90000FB1A8E924B71283224420121B15803687
:109AA000AB42AA43A944121AAD64017029E924010A
:109AB0001283226418701FE545B4040DE5442403A5
:109AC000F1651245198F1A800DAB42E5442402F16D
:109AD000651247A88F1AB1A8124CC79002B0E07067
:109AE00003122CC9200402816BE546544264407085
:109AF0001D9026E4E070028186E4F15212832A244C
:109B0000BC12832254F0FD7C001287CD8186E5468D
:109B100020E10261DDE4F53E12832A24B71283229C
:109B2000FF540F6401600261AEEF30E77712832AC1
:109B300024D8128322FFD3940A400A12832A24BC19
:109B4000128322800490210EE0902606F0902606D3
:109B5000E0FE540FFD902605F0BD0F028037EFD3D5
:109B6000940A401312832A128FC6902605E07C00C7
:109B700029F15EF53E8010092605E0240FF582E408
:109B80003421F583E0F53EEE54F0C4540FFF9026E7
:109B900005E0B5070A12832A24BA128322F53E1281
:109BA000C4F5800A12832A24BA128322F53E128356
:109BB0002A4A70028186B186653E6008902016E0D0
:109BC00070028186B1BCB18C30E70CE5412409B14B
:109BD0008C540624FF9200111DC2008186E5465474
:109BE00022FFBF20129026E4E070028186D121E09E
:109BF000FFD114F11E8186E54630E4028186902073
:109C000016E030E2028186AB3FE5412408B18CF4D6
:109C100060139025FFB198540FFDBD0203D380015E
