:020000040000FA
:1000000080000166A28FA42C381704401F144024DE
:1000100015402917403930403E6F201F02184E020C
:1000200074DF19997FB8822D1C161311101000026D
:1000300074FF5A2D5761766520362E301F3100FF30
:100040000270196AD26BA1FF0250F2EF9018379339
:10005000901900730A20364CE572FF22EF1FF572EB
:10006000223BCD38103A591BB50261217581B0751C
:10007000FF03759E0212192002339E022EBF1F90AD
:1000800029AFE47E019360F4A3FF543F30E50954A7
:100090001FFEE493A360010ECF54E0B4E00EEF0323
:1000A000FAEEF9A320000DDAFDD9FB80D654C02565
:1000B000E0604B502620211FF85407240CC8C3339E
:1000C000C4540F4420C8834004F456800146F6DF30
:1000D000E480B0010204081002204080202500FACC
:1000E000200300F8200308C8C582C8CAC583CAF027
:1000F000E0000905DFE9DEE78085201A401E1F4089
:1001000003F68001F208DFF40218631958195D192B
:100110006C197119761A2A1A2FFFC0727419C0103F
:10012000E0C082C08375720AE5FF54CF4490F5FFAA
:1001300022E003150020E00C150036601500A0E059
:10014000062B004C601500B02015079081AA2116DF
:100150009081BE200401A046200401D8962004010D
:10016000E86B400400832004018CB1200401AD3809
:10017000200401EFE620040196E92004018E3F20CF
:100180000401F084400400A0200401E34A2004019B
:10019000F0F820040197AD200401A4E2200401A995
:1001A0009A200400F2402201F194200901E3C920C1
:1001B0000401CD0D200401E643200400F240270194
:1001C000E4D6200901E409200401E178200401F2C9
:1001D000D8200401AA24200400F3403101EE6D4030
:1001E000090028200401A193200401EF102004013C
:1001F000ED75200401F5C4200401F6074004004C0D
:1002000040040080400400CB200401F76240040059
:1002100012400400892004009B40B801F7E0200947
:100220000181F4200401F8144004003C4004006EF5
:10023000200400F440EA01F87C400900C3200401D6
:10024000AD05200401ACF0200400F5405901F45341
:1002500040090018200401F258200401EFD02004C6
:1002600000F8410D01F8FB400900FC200401F1BC3D
:10027000200401F90C200401EDC1200401EBD2207F
:100280000401F482200400F940E501F9614009000D
:1002900067400440C701F83B200901F1CD2004016B
:1002A000DEA7200401DA3E200401CE25200401E46B
:1002B000F6200401C1B2200400C0413F01BF9920D3
:1002C0000901C2E5200400BF40B801F1F320090193
:1002D000C277200401E952200401F9732004019E31
:1002E00054200401F80F2004019ECF2004019CEA51
:1002F000200400E5413501B101200901BC3D200485
:1003000001BE4D200400BB40B301FA6F200901EC8F
:10031000B8200401E979200401ECEB400400172027
:1003200004018097400440CC018000200901815FD6
:10033000200406B7FE2142908C0B200401C7F12057
:100340000401A92D4004400E018C1B2009018A08DC
:10035000200401886A20040187BA20040180162045
:10036000040189CA200401B1A1200401C82E40045F
:1003700000D2400400822004018C27200401CA9985
:10038000400400352004018AD7200401D111200443
:10039000019B51200401C8AC200401D010200401AD
:1003A000C846200401CBAD400400FC2004018D842C
:1003B000200401D24A200401A904200401D2C22051
:1003C0000401D353200401D2DB200401880120045E
:1003D00001D4004004004F200401885C2004018007
:1003E00048400460130056200901D49A400400B329
:1003F000200401D6C0200401A24D200401BFEC203E
:100400000401D75240040057400400684004008BA8
:10041000400400BB200400D640F4008140C7019492
:10042000B0200E018CC32004018237200401C9EFE3
:10043000200401D8DD200401B422200401C9B12028
:100440000401D9504004403601A9FA200901B4EE54
:10045000200401B2F8200401B4DE400400E62004C8
:1004600000DE405E01B2C7200901B2CF200401DEE8
:10047000944004405901A95A20090184E320040151
:10048000DEF04004404001A960200900DF40BD01CA
:10049000B7F42009008D40D100DF40EF00DF401DA0
:1004A00001E039201301E0A4200401D46B200401F1
:1004B00084E9200401E39E200400C2403101853B11
:1004C000200901B288200401E4C8200400C0400EC5
:1004D00001E4D1200901E5204004006E4004006FD2
:1004E000200400B2417B00B4400401E578200E01F5
:1004F000D90720040184B4200400E5412101E60568
:10050000200901B763200400E640AE01E6E12009BE
:1005100001CD71200400CF406D01E77B200900B5BB
:10052000417B01E7E2200900A340DB01A3E72009AA
:1005300001A1852004009F40A401D8D0200900A675
:1005400041B7018C1E40090040200400A54018005E
:10055000A041AD06D26C212C90D7D0200401826836
:10056000200401D9A2400400E5200401C0002004B9
:1005700001A026200401DB72400400C1400400E712
:10058000200401D8A7200401DC04200401D18F201D
:100590000401EE0D200401AFF3200401C7EB200499
:1005A00001EE13400400AE200401C68B200401CDEF
:1005B000FC400400AF200400EF402701EF35200984
:1005C00000C8403B01B412200900EF404F01F00C7D
:1005D000200901A7FF200401C80A200401D19B4083
:1005E00004402201CF54200901F0E4200401D2E1AB
:1005F000200401D44720040FF143212C00E709F621
:1006000008DFFA8046E709F24007083E88828C83BB
:10061000E709F0A320130132E3801B0178E3801B7C
:100620000070401B00E3801B076489828A83E0A37B
:10063000F640330058800B603F1F4C80D280FA8018
:10064000C680D4806980F28033801080A680EA80E2
:100650009A80A880DA80E280CA800033402B00ECC8
:10066000461E461A03CCC583CC861A4009661A007A
:100670000D4020261E205907F9ECFAA9F0EDFB22C7
:10068000401102ECFAE0E00B3104EADEE880DB40E6
:100690001F2031207F05F980CC88F0EF26C40F4E53
:1006A00060C388F0ED2402B4040050B9F582EB80F9
:1006B000090CAF2323458223901EB873BB0106406B
:1006C0003509E0225002E722BBFE02E360640EE43B
:1006D0009322BB010CE58229F582E5833AF5401EA1
:1006E0000506E92582F8E62022600801E222E00101
:1006F0001C602C0009404508F8E028F02250032730
:10070000F720260905F8E328F3228A83898226DF69
:100710000028204E010FF8E0013260270309C5824E
:100720002920130126F6202D600B0BE22582F222F0
:10073000F8EA2583F583E96032609A20510002408F
:10074000500601F322F8BB010DE0014400E8201936
:10075000408C00C840400005209E0EC8F222EF8D5C
:10076000F0A4A8F0CF8CF0A428CE200A082EFE22F8
:10077000BC000BBE002920171984FFADF022E4CC89
:10078000F875F008EF2FFFEE33FEEC33FCEE9DEC36
:10079000984005200614FE0FD5F0E9E4CEFD22EDC9
:1007A000F8F5F0EE8420D21CFEADF080290EED337A
:1007B000FD4007985006D5F0F222C398FD2028147A
:1007C000EA22C2D5EC30E709B2D5E4C39DFDE49C32
:1007D000FCEE30E715400C099FFFE49EFE12203F1F
:1007E000C3E46016018003200B0430D507C3E46026
:1007F000180422C5F0F8A320F9200613E58215821B
:1008000070021583E038F022A3F8E0C5F025F0F07F
:10081000E0001303C838F0E8212F000A415103E03B
:10082000F5F0A3219B050687F009E71921270607A4
:10083000E3F5F009E319A1A403F5F0740141A9005F
:1008400010E10114A0300009210E03F886F00841E0
:10085000B0000A400B03E2F5F00821B401832A41FD
:100860005B205400E94037000D21810BC582C58310
:100870003AC5830220CA5011200E0BF808E5F02675
:10088000F618F5F0E582364157801308E225F0F5B9
:10089000F0F218E23541A0A06C2049207D401802FA
:1008A000E49338C0AF03F0E5F0A3419603F709A73E
:1008B000F040AF0606F3E5F009F31941B90011A0C5
:1008C00037224E00E8A02640A504C8F608A6F0206E
:1008D000D9600B03F2E5F00821C41F2BFFEE3AFEAE
:1008E000ED39FDEC38FC22C3EF9BFFEE9AFEED994B
:1008F000FDEC98FC22E88FF0A4CC8B05F0A42CFC36
:10090000E98E4005028AF0ED200B00EA200B02CDB3
:10091000A8F02017062DCC3825F0FDE92025052C60
:10092000CD35F0FCEB201803FEA9F0EB200F10CF23
:10093000C5F02ECD39FEE43CFCEAA42DCE35F0FD09
:100940002009062275F008758200820E1FCD33CD76
:10095000CC33CCC58233C5829BED9AEC99E5829865
:10096000400CF582EE9BFEED9AFDEC99FC21F81F00
:10097000D6E4CEFBE4CDFAE4CCF9A88222B800C1DB
:10098000B90059BA002DEC8BF084CFCECDFCE5F048
:1009900003CBF97818804C2234225E12EB33FB1023
:1009A000D703994004EB99FB0FD8E5E4F9FA22E06C
:1009B000052015C933C910D7059BE99A4007EC9B60
:1009C000FCE99AF90FD8E0E4C9206000FB209A0006
:1009D00010E0004A209715C833C810D7079BEC9A3F
:1009E000E899400AED9BFDEC9AFCE899F8209315F4
:1009F000DAE4CDFBE4CCFAE4C8F922EF5BFFEE5A6F
:100A0000FEED59FDEC582137827482891522EB9F47
:100A1000F5F0EA9E42F0E99D42F0EC6480C8648003
:100A20009845F0E0041501E89C201011E8600FECF7
:100A3000C313FCED13FDEE13FEEF13FFD8F14012CC
:100A400002EFC333432F80D3201202BB0107429B26
:100A5000090224205005E9F80228FF437E03F8022A
:100A6000290B8015002C2258E101EB40250007429C
:100A7000816027800901290BE0031F202FA04F0070
:100A8000AD604F012941A04F004D2069E0044900AD
:100A9000ADA0494021A049104D22E0FCA3E0FDA3F8
:100AA000E0FEA3E0FF22E493FC22930AFD7402938C
:100AB000FE740393FF22E0237006F9A3E0FAA3E09B
:100AC000FBE0074B003CC04B0017E0004B0024E06C
:100AD00002951129317401FF3395E0FEFDFCA3A3BB
:100AE000A3E02FFFF0E3009F013EFEE0010B013D7C
:100AF000FDE0010B1B3CFCF022ECF0A3EDF0A3EEBB
:100B0000F0A3EFF022A8828583F0D083D082122454
:100B1000D0E0000201E47325A005C583C5F0C583BC
:100B200045F700F0E0020B20A1A10700B981070002
:100B300059A10700722019E1040700B9C0BB2021A8
:100B4000A107067222F5F0C582A423CD205900A486
:100B500045420822A42582F582E5F035254E022281
:100B6000E0FB610502F922F820092007E4036F0089
:100B7000FA248403EBF0A3EA241425200193FB213B
:100B80004100FA214100F92075808F012545808FB1
:100B9000008BA08F009D61E704256EBB011A400900
:100BA0000ED0F0D0E0F8D0E0F9D0E0FAD0E0FBE8E9
:100BB0002CAB07F00225655016E9F840FCE0001860
:100BC0004CC104022994BBFEE00D1800A6206EE083
:100BD00003E42074A0DA2076A009009DE102A04081
:100BE0007E0020E0010FE00E8400184279E00D86BF
:100BF000E00F1A01A622402F04F8E4937012210995
:100C000005700DA3A393F8200805F5828883E4738B
:100C10002117026860EF22110180DF4025E01024D7
:100C2000006C203C1003936D700C7404936E70067E
:100C30007405936F60DD203620000180CA471403DD
:100C4000E473E56D619F006C419F09B56C0485827A
:100C50006D2210AF06200602F56C22600503D2AFAC
:100C600022EC24BF0BCCC5F0CCCDF8EFA4CEC5F060
:100C70002D44B406E8A42EC8C5F03D400A07EFA4F1
:100C8000FFE5F028FEE4600C0022461A08E208B5F1
:100C9000F06BDFF58067400C00E6200C005E200C56
:100CA000015A87800B0452DFF6804E200B4024004F
:100CB00046200B01428828E2200F04E0A3B5F0365D
:100CC000200F0032A00F22A102B5F025203800210C
:100CD000401040494021001420100010C010602234
:100CE00000022EAE072858808780E9809028E717F9
:100CF0003E8015806E807E809D80B7808D80A38031
:100D0000518074803C022864422348E8267542F2F0
:100D100048E0203EC00A08B5F076DFE3DEE18070EF
:100D200040266024409E0462DFF4805E401146CF7E
:100D300040C70051207D004DC010402100402010D0
:100D4000003C401060334022002E2033042A8002F1
:100D500080574015E00670E9013314B5F006DFE472
:100D6000DEE280007FFFB5F0020F2240027F012209
:100D70008031406BC096E0033006D5DFE5DEE380CE
:100D8000CFE00924E004C600AF605600A9C9760090
:100D9000ABA9740198F5C974008E89740627A073F5
:100DA000EF4E6012499C02EDBB01653310F0A3DFEA
:100DB000FCDEFA2289F05007F709DFFCA9F0270FC3
:100DC00001FCF380091FE6FC08E6FD08E6FE08E6E4
:100DD000FF22E2FC08E2FD08E2FE08E2FF22E6FB59
:100DE00008E6F908E6FA0E08E6CBF822E2FB08E28C
:100DF000F908E2FA08E2200C00E462AF00F922AA46
:100E000000FA228318FB22ECF608EDF608EEF6084D
:100E1000EFF622ECF208EDF208EEF208EFF262E6ED
:100E200003E493F60822DC20040002400405039347
:100E3000F674047382D900F24018200400024004C2
:100E4000020393F220184073207009F922EBF60890
:100E5000EAF608E9F660782075201116F208EAF241
:100E600008E9F2224103C8004103C700E002020082
:100E700000143940060802120EE001020009544035
:100E800005150AA5E00502120B120E020601410625
:100E9000B8060114004106B7200A12B501C11A01B3
:100EA0001900011700C12F413E8A00413E802003F6
:100EB000008920030F87FF4337A30000004237A1BA
:100EC0000000413D5F405B03121001B0204E021252
:100ED0001200400501930020541713BB01B0060611
:100EE00001C11DC102412D3200412DBCFF412DB475
:100EF00000C1200900BD200300BE200320630D05B2
:100F0000412D31004143FF00C13B433B3C20550292
:100F1000413B3B2003043F004303BE200D0D430330
:100F2000BB0103BE422F81980743415A401017412D
:100F30005701415A41432F0241432E0D414330088E
:100F40006020369242DB01201BE01100202302B218
:100F50000900E01500025039CEE007201AC1140143
:100F60005800C111C1124142A205C11EC120C125B4
:100F700042238C984041238E205201234BE0072FBF
:100F8000E00700084320009F0100502003E00618FE
:100F9000150161272606000201050101020E060166
:100FA0000100040704010220250A040006080504C4
:100FB0000208031404200B06140501080908054063
:100FC0000E0005600E0E000600140802020A0A0850
:100FD00002030100084013000860130B010800140D
:100FE0000A020D000A0A020C400408080B0A0A0152
:100FF000050C0E0A4022000A4022000A4022080E78
:10100000000A0D110E0208042009205E000E40188F
:10101000000E6018010105200909020F0E121100CF
:101020000C0C0E1140220011402200114022001130
:101030004022001140220211000A20040402050E81
:10104000121240220512020C0F001240270012401B
:1010500027001240270012402700124027011202E9
:1010600020540712000C001413020C219F000241AF
:10107000810102102286020209012004060B0013DE
:10108000140007102009000A400E2090001420BD13
:101090002004000D400E000E40090E1001006024D7
:1010A00028160200FFFF0602FF004003040301FFB1
:1010B0000023200F212D0100132003030200010152
:1010C000400B0346276D0121521B04024227F31DEA
:1010D0002C41287A00412A14014128800043287DB0
:1010E00001283B4328712005024109D621B9030894
:1010F0009DEDFFE014001F7F492BE84C6966656C8D
:10110000696E6500462C37424153494300C108418E
:101110002BC000C106C10A13412BE400422C35004C
:1011200000412BA300C107C109412C17200B03D498
:10113000FF412C2298092B3403412C07FF412BF44B
:10114000200F040205412C0520071E1EC4412C1C43
:1011500040412C24004F2B38FF306511FF307604BE
:10116000FF307A0E030701412C1F43440313C000D4
:10117000652338061420006504040123AA0C1425F5
:101180000013E00C021427000C4D492166040104F1
:10119000010601402103330013FF80210038208322
:1011A00005349701423AEB20080B3AEA00C144416A
:1011B000389700503823211AE004000345383300E3
:1011C000350803804737AFA017024337AC20090228
:1011D000413E662003006720030062200300612077
:1011E00003056500423E63002004005F401D045C6F
:1011F000004342E140270742E000C14E433D7620D4
:101200000B19423D7D0000443D7907102232463DD6
:101210007040464A4E5256C127413A112083040E6F
:1012200000433965202406413942004C3E7421EFC9
:101230002000001120031F0000C1554108D920C122
:101240005700C2D5E830E70FB2D5E4C39BFBE49A60
:10125000FAE499F9E498F80BEC30E717B2D5122EBE
:101260007B122298E004182DB804229830D50DADD9
:10127000D1AB430D78B0E4F6D8FD9000007F007E3E
:1012800010E485B315904425A3E583C39420401151
:10129000FEAF829020000E0FE48002801B00123609
:1012A000611B186022324F6E54696D65004E756D7A
:1012B000626572206F66206D696E75746573400A91
:1012C0001F5F6E6F5F206D6F74696F6E2062656661
:1012D0006F72652073656E64696E6720616E204F62
:1012E000460F462E004F6E4C6576656C0044696D66
:1012F000206C4009072028312D3939252940291231
:101300007420746F206173736F6369617465642006
:101310006E6F642058037768656EC0550769732047
:101320006465746563201D0B2E004C6974654D69FE
:101330006E004C7520830A616E6365207265706F64
:101340007274804A205C02727920A023C0A5052E09
:101350000054656D704034400704657261747520F7
:10136000A4E00936401D2025E005360341646A00EB
:10137000200301757320A703686520742049C041CC
:101380000D627920302E31462E2052616E67654005
:10139000A6052B31322E374640D0002D20090038CB
:1013A000201A0456616C7565412605312072616909
:1013B0007320D92035002B8036E0001B072D31200B
:1013C0006C6F776572601C002DE0061C02313233B1
:1013D000C03A405E0533462E00556E212F026967E4
:1013E0006E212D04506172616D211C1372005E71BB
:1013F0003133267286598570775A7A739F556C5EA1
:101400002003E00413116C1DC21DC71DD11DD61D84
:10141000DB1DE01DE5000001225F0200170620042D
:101420000100184005000660050001600500086025
:10143000050001256820050015200443094005002A
:101440000B4005000660050008600501010D20162F
:101450000200010E4017010110200A0200010F20B6
:101460000402000405403B01040640590204070839
:10147000201124DC200000036017010108600C40EB
:101480001601000144EA020001124011010803277D
:101490007402000122200402000816401E000840C9
:1014A0000402000116404D0006600501050944BD17
:1014B00001050A2016010005602F0005407C02008E
:1014C000061B406B0001600502061C074011001D51
:1014D0004005010705404201081E400B010820207D
:1014E000160200081F200402000821200402000840
:1014F000116035600500086077010619401101068A
:101500001E201C010006602F01061A40410106142E
:101510004083000760050008606501072420220160
:10152000000860110055E005000033E00600008867
:10153000E005001D3F241E16110E0B0907050403CC
:101540000201F0C8A791776760463835323024220F
:10155000201421780A020203030404050506060785
:1015600040B7E013000087E0055A018826E0060036
:1015700007000DFA20000DDC704043262E08013FC5
:101580003F3F0404043535258C00002350A5B319D2
:10159000496E76616C69642067726F757000417086
:1015A0007045765363686564756C225D1F1E121E5C
:1015B0001719B219B719BC19C119CB19DF19E419D8
:1015C000E91D4F1D591D5E1D631D681D6D1F1D7298
:1015D0001D7C1C2D1C3C1C411C461C4B1A6B1A709C
:1015E0001AA21C6E1C731C781E581E5D1E621F1EE4
:1015F0001C1E211E261E2B1E301E351BC91D451EFE
:1016000053743CE4FD7C0CAB050DEB90181693066F
:101610008F828E83F00FBF224604DCEC7F032240D2
:101620000E249F127406715474017154A3E4F0EFF8
:101630002404F582E43EF56016033AF022F04022DD
:1016400018A3A322AD07901217E054FCF0E0FFEDC1
:1016500054307E0060027E02EF4E20134010067E62
:101660000030E0027E01800F10229003D07402F05F
:101670009003C7E0FF121DBD715C400F1905F022F9
:1016800075FF0275E404E4F5E4F1CCC330E001D366
:101690004017E5E630E012204207E0540C600A12E1
:1016A00048A9600A1FF7F0C219F1CC30E037E5E62F
:1016B00054036401702F121A161264B0401E901267
:1016C0003FE0600AE01414F07005122E89D1F79003
:1016D0001215E020E002819312493C2004052E8976
:1016E000D219D1F7600815126C909003C9EFF090F1
:1016F0001200E0B47A14901214E0B49C0D20120D84
:10170000E0FF64056004EFB40330E49003CF20A24F
:1017100009CFE0FFC394805013E42F20F40134126A
:1017200040F540140304F080E3203C01747A204229
:101730001A14749CF0D215121C0A4003121C057B6B
:10174000017A1279107D017F01121C00600C0011DA
:10175000200C0021C00C0012200C0022200C2024A0
:101760000C297F0212732D901229E0B40105202E5E
:10177000047004121A1B209902121A11208907EF13
:10178000F0121994121A0C200A0DE0FFB406028020
:101790000C3019047F028005601008121DB3EF247D
:1017A000FFB3923B21331553E6BF12468F6002D13F
:1017B000F71250CC121A2512406F30150A607A07C2
:1017C0002B7D10F174121A5C41098152050E203BE9
:1017D0000B7187201C092D79C51219D090122AE0AF
:1017E0002199018003405C1F01F129D2AF203B0207
:1017F000A1B3121C23123C19121DB8121BFB40F29C
:101800009003C8E06044121A0143EF21581F588F1B
:101810004039E51470FCE51520E502F145121B6A1C
:10182000EF70FAF11750087F017E00F1075060C990
:1018300000EE403206B40204E4FF8009600A0003AF
:101840004016104940121A39E51530E1A0127827E8
:101850004002E4F04043180BD1D9AF82AE837D0142
:10186000125CF112784DC0E0D1E79003CBE0FDD0DF
:1018700020E413198AA12812506B124FEE50031264
:101880005008D1FFEF7006404E076059902D32E0AE
:101890007053E001920048C09201099020D121F4D8
:1018A000E01499017011204A04600C12406042500B
:1018B000044408F08008405603FF1248FAA0F90ECD
:1018C0001BE7F1F7123805EF7021F1D4EF60052224
:1018D0007A0180392033047034F1F1EF2270023E36
:1018E0003EEF22780527124059802240420220E232
:1018F0001B40270011E1030701E4FF2107224504F3
:10190000CEF020160520F811802212584E9003C107
:10191000E0FEEFC39E4005EF9EFF40750DC1E0F471
:10192000042FFF7406D39F5002C216411C0029E108
:10193000201C1F121BBA121A4D1250B7A1B39003EC
:10194000CAE0FD75F0AA9003D4122539ED75F002B6
:10195000A424C307F9740335F0FA7B0120A209150A
:10196000E054FEF022F1DCB4014EA2069017FCE434
:10197000935EFE2DAC015F4E2245032290000120B4
:101980000B0EB40007E493B41802C322D322EF6015
:101990000D819701E4FD21970A8009121A48F1454B
:1019A000E433FF222EE0216A1F291279F812579D95
:1019B0005005C237125C77F1C4E4F5FF1263D5E538
:1019C000D120E0FB43152053151CFEE4F510A218AE
:1019D00092EDD322C32290097B12256590097EEDFA
:1019E000F0E4A3F0ED54FE200A09F0602FE4FFF1CB
:1019F00029BF0128601D0945124D97501D90097C93
:101A0000E420B8091220CA90097FE02402F04006C1
:101A100000FF202D04E06F70D87F229C600F082209
:101A20001264FE7F08021DF422F940D740D4000260
:101A300060D40B03CEE07F0022C2AFEFF45215302A
:101A4000EF07E4F514E145903E862032401A233238
:101A500003EA9003D3334B20052028007040331F46
:101A600012678AEF70087FA07E0FFDFC8068126706
:101A7000A7903E81EFF07407D39F4052B1F9EF7504
:101A80000BF0A084AFF07E00127A3911F5201A0E07
:101A9000E06046A312243CC000C001C002C0034065
:101AA000111F14FF74107E00A807088005C333CEF1
:101AB00033CED8F9FFEE3395E0FDFC11FBF812228E
:101AC0000DD00B03D002D001D0001221F2800829E2
:101AD000EB09D07D077C0011F5310211225B08482B
:101AE00012679BEF704211ED202B0CD312235B4049
:101AF00007E47F01FEFD802560111F12229811F579
:101B000011EDE47B01B1B2501411EDC3EF9401FF6C
:101B1000EE9400FEED9400FDEC94001D11F411ED27
:101B2000312ED10F0240597E3A7F59C006C00711AD
:101B3000EDD104F0D007D006317240E7013E823586
:101B40003001FDFC60070DADE47BE87A03F922B1BA
:101B5000F1EF600FE440F10111F342B90154E721C4
:101B600010256002FF74E020F40805E02410F02244
:101B7000EF6410201220170942641224AD316CE486
:101B80007BFF2082031CE4316B209302901218200B
:101B900014201201FAF9A00F0128EB202A401500A9
:101BA000B926C401003124C00028207D00F8203D62
:101BB000207E083178903E8A22903FD074C7017F02
:101BC000FF413F0BE8494A4B6050903FD77403F008
:101BD00020050CE0FEC3940E5040EE7195E070328B
:101BE000200F017193260C0AC007903FD2122420C7
:101BF000903FCB206E05903FD6E0903F258F023F6F
:101C0000D0E055A203D00791CB202901E004434343
:101C1000400706F080B6227401F041EE07640270BE
:101C20002D7C3B7DCD25510619EEE4FBFAFD7F248A
:101C30004800DAC12206E47FD07E07FDFCE10527DB
:101C4000203404037017FFFE2112023E89E0403C5D
:101C500024BB037F038011256F000D401E02B404D6
:101C60000B4015017F042052018013601108010B05
:101C7000B1EA718651F8E4200D03F0227186200646
:101C800024F1020AB1EA200820D70121E020074010
:101C900056076A903E88E06057A320310505121B65
:101CA000DD800A406205B40203121BE240190414ED
:101CB000F0E0601F626A024684E53A251264A4FFE0
:101CC000EF24A0FFE5F0340FFEE433FDE433FC80A5
:101CD00020B301A07E22A0611000AD40C800E42125
:101CE0000F00F0A1E3008620F60631E07FFD021D23
:101CF000CC200C20A9001241E20A0A7B007A00796C
:101D000000E4FF01102074219E21E9000321A60EAA
:101D100043F3EFF0C22F6068717DE0600231DD2097
:101D20000F04E0FFB401072093037401800926F734
:101D30000010400A0302F051F8209C007421561054
:101D400036EF6404702A901221E07015D22F1267CA
:101D50007E26030451F8126776206C401F0022464D
:101D60008E01B40520CE02D851F8237E210E0088C2
:101D7000603D00862045048004717D04209D200D77
:101D80002385201A008941A12298048AE0FF71A8C6
:101D9000200F0B8AF022E0FF75F00CA424CAF5276F
:101DA0005E0E2EF58322902BF4E0FFAB07E4FF1BC1
:101DB000EB42160219B1B9A2580191AEA00804EB8A
:101DC0007195E4F02487039043B8EF5722217B01FB
:101DD00043B8215E010DA320680087207C027FFEAE
:101DE00012210C2013087027302F12121DF9EF2535
:101DF000EB091A52EF60069043B974FF210040903E
:101E000080FF00B9441800CC209B0343F2F0D32597
:101E10000702E094002D95200501407D201208E086
:101E2000FF04F0EF9405507120130374FFF5F024C4
:101E30009B0BE4F56FE56F91AFB1E34F604D400848
:101E40000874FF12247AB1B07040200C07BDE0FF87
:101E5000600AF46007600A0114F06006056010E58E
:101E60006FB1BA22C900E5203521BF048006E56FB5
:101E70007120C002B11DE038660B4E6005B11D1225
:101E8000791E1246C705205720F10740A1121B06F4
:101E9000811E22202A01EB75411900BFC119600D76
:101EA00000C9C00D02903FC9782005903FC8EFF0EF
:101EB000FB63260920B1B991AB91ABC083C0382632
:101EC000003C20B2406107FF1257C8D082D0832067
:101ED0004F2341254F053FC8E0FE91BD28FB013F40
:101EE000C9634B02EEB11F60480222E56F606100DA
:101EF000C7E000610940A0126A07EBF09040A521FD
:101F000034069040A4E09040A6200700A6491203A2
:101F10000E505DEF40CF0420B1B0704B401B027EED
:101F2000017029F0201D027193EE43BD0340A2E031
:101F3000FF2A040A0512585F80027F0AE4FCFD6054
:101F4000A302AD904021A643CA0140A0607E63CAAF
:101F500020530104FF206722A1400A02F08099204B
:101F60000C423207FBFAF9F8C302235B810A00C373
:101F7000C09A03AB07E4FA821F020DB1B9418A008F
:101F800006421D03AD0AAF0221370B20EC4D4E2255
:101F9000E4FDFCFF0219EE62F80B08FF229003C279
:101FA000E064AA2411FF2061445700AD43428790AA
:101FB00000D1649922010206C8F02917060679D7D4
:101FC0009042EC1226B120050351A671A8400705E6
:101FD0002545E4021FF9404C0D30E10B1258AC507E
:101FE000067E007F01800420051F00EF4E70131253
:101FF0001C5FEF700D124751EF7007D16ED10F7F4C
:1020000001227F0022124744E9240DE0F9E4903DCB
:10201000861247BA1242231247204D050504F0905C
:1020200042012082600503201241BA201308E06FAC
:10203000603C1246B8F181486C0846C780F61245EC
:102040009D60094021044696E4D1DF6008009EA00F
:102050000801242060080705E0FFF1C3903D5623E6
:10206000FF00D327660AF1F47F05E5C820E2FB8F65
:10207000EB27A404F1CA9043F92019200506E0607B
:1020800031D1DBF17520092A52064522F164903DD9
:10209000536009201110E05401127A5060D9A3E076
:1020A000F460D4EF30E7D0230703F9F080C9204C67
:1020B000029FD1DF2034063D54F173903D59400416
:1020C000075AEFF0F1C5903D52202A001B402F0027
:1020D00016201705E0FD541F240F27D505C41354FF
:1020E000074480201100F0408804D7D1DF7FFF2013
:1020F0003F0079202E45F401D1DF609900AF80992F
:1021000002303915809000FAA08600FA49B004C266
:1021100039303919809C4092000B406200062092B1
:10212000201820B5282D02CAA239488001D1DF60CD
:102130000E0BEFB4010443FE202253FEDF22206584
:1021400020410412F1F07F3D2078002A2003008016
:10215000200302A6F1C381081F3D57E012267240FA
:102160001704401F14402415402917403930403EC1
:102170003440433640483700001F40315354EF8508
:102180005480802F5355EF80085355DF80035355FB
:102190007F855590801D5356DF850A56A0801553C4
:1021A00057FE800D5357401E0157BF201E08577F12
:1021B0008557B07F0CDFFE22370103CE2254010386
:1021C000CE216D60060502F0221237DC885E1371A5
:1021D00059121A34121B0B12198F121C28D18F702E
:1021E000022157268E071AC5900949122565223EFD
:1021F000050931B7BF540D2008000A200800A52B9F
:1022000083232C00002D191CEFF05102E94A4B707A
:102210001C7F04FE31B7EF2401FFE433FEC37401D9
:10222000F1B17F005028BA6022200400E02A870D17
:102230004B5102F18C7A09794F912D90094F63F43B
:1022400020110B9AFAE92407F9E43AFA90094C2094
:102250006B02E92408200C02FEAF0122E3E0002A11
:102260000464047004A32042046008121ACA204DBA
:102270008052017027208F0A04C006C37439940469
:10228000FE741425120740C1F0A3CEF07B00465423
:1022900009D006F133E4FFFE121ACF2031245F0784
:1022A0001AF2D18F7F006002477016F31219FD12E7
:1022B00019621277A3121B6FF1A1E0FE4FFDA3E09C
:1022C000FC4D20040DFB4D600BEE5FFFEC5FFFEB60
:1022D0005FF4704BCE465404FF5403242343D52DA2
:1022E0005901E06F23A504F0021BF1E02A0509A4BF
:1022F0002485F9740F35F07B0220B2443C0141FC87
:10230000233203D1B8123F23220104D14321053FD8
:10231000F07F03B1B623250741FCD196E4123EDFDE
:102320004008009EA0084325201205123F759042E8
:10233000002267013FC52007245121783C0E21A4CB
:10234000029040BE211520592869400A004520E32B
:1023500006F1DDD007903D7F206803903D83122475
:1023600002400B1B20903D5CE024FFFD903D5BE0B4
:1023700034FF5EFEED5F903D88F1934E6059911EF3
:10238000250901F1D0200E00F03DA323E514D188EA
:102390009FEC9E5002F1C97145D16B602771EEC070
:1023A00004C0054998087145E94A600571E1FF419B
:1023B000DD117E007145F107D007D006D005D004AD
:1023C00091B3711E201C0006404C018070217802E0
:1023D00000806A204A61C5014E60200A085BD188EE
:1023E000EF9DEE9C400A206765A82892201F04FFFD
:1023F000A3E0A3CF40770071E02E6B64BC04903D56
:1024000084EE8F46D602808BD323470088607624E3
:10241000550287E09F40D001E09E2005210F033C3C
:10242000E4FCFD2AC2600B411B21421BEFF4045F58
:10243000FFE4FEEF70037FFF22EFD3940F4009EF1C
:10244000C4540FFFEE4404FE200E0703400AEF13AE
:1024500013543F200F1102FEEF30E1010EAF0622B0
:10246000AB07AA06EB241FFF228716EF7805CEC321
:1024700013CE13D8F9F9EB541F9043FBF0AF05715D
:10248000E6FC20041250AE01EE14C39FC43354E0A6
:10249000F9AF04C3EB9FFFEA2AF404E9FDC3EF9D03
:1024A0008AFE1A600FE0FD6007C374209DFD800660
:1024B0007D0080027D007C00EF2DFFEC3EFE20C2FF
:1024C000058CE0FF714BEF403D200C80CF401405A0
:1024D000FD717F903D8A65EA271320210675F02063
:1024E000A4FFAEF020D860D5013C0240DE402F00B2
:1024F000226322053B796B90413842270141352206
:102500000920262227400A0045201626C0073FF151
:1025100085D007903F38410F043F3C122565E20DFE
:102520009A013F38A29A2008009E42902008225229
:102530008009043FF13A601942A140400245EF1280
:102540002661013F3D2D02010112218F01E0B124DE
:10255000F405023FCA903F2F6063013312E0056328
:1025600000B1461F013F2FC05E002FC05E202D0628
:1025700020E48026903F36205D002460370045220D
:102580005F0413121F5EFF231002903F34C06100EE
:10259000DC2EA1033EDF80D5431B66460022200EC1
:1025A00005F17FEF70FB9025D90DF4600A9043F898
:1025B0007406F0D1A670FC90854316455B04456314
:1025C00014456815456D17457D304582344587367D
:1025D000458C254304457543541065430C43551001
:1025E00080084355208003435580654302435620AD
:1025F000654306435701800D4357401E0157402055
:102600001E01578025434063010CF0406325AC094F
:10261000123FCAD239123FF47F06208901B122202D
:102620000902903D55246120B6013D582BD8032264
:10263000D1AE12218B04903E2AF0A32745023E27FB
:10264000E0294209FF4E7002C165D3EF94202D1C92
:102650000540047F2080062019201702903E292380
:1026600095023E241221B3013E29200F0138F53294
:10267000C940120020212304127346400E20490055
:10268000E0234802FEEF4E2009202B202503C390B3
:102690003E2842FC205C0194002006202B003C20B8
:1026A0001803E4FCFDFE230140800445E94A60076D
:1026B000201223AF45AB023E25E4634108903E2B38
:1026C000E025E0F0A1CD204A4468224C205A204762
:1026D00063A562640220B1C0228B286C68F9237064
:1026E00031DB00642E85062420781002236C40071D
:1026F0000008200721132A3D22BF407C00AD20C1E5
:10270000531906E5E430E10675E4200201032230A6
:102710002601E20F513C000A200900E0515A02371D
:102720002922E20380E1034A01B11F214720100161
:102730003EDF252E001F625303E92FF9EE26170016
:102740003D2B8620A1013F3660A10822F1A831BAB5
:10275000EF600EF1A8B4229E0ABA914F22510B7479
:10276000FFFDFC228AFD08E045F0227E127F94E402
:1027700023350137A3240508F14BE9240FF16A70D2
:10278000094008030DF16A60A6C10822F9EA340283
:10279000FA021F5EE003950722E5C85404FF22FFFA
:1027A00061850222AE0243680122FF63930622C3C1
:1027B000E99FF9EA9E2CA800232093406300932010
:1027C000630C22D39FEE6480F8748098223AFA2733
:1027D0005F04A37427F022602F00A365092164031E
:1027E0005CE09FFF252303E09EFE22203800E025C9
:1027F0001980CC0175FF544B0575E40175E402A006
:102800000C345825FE00A4218B0109A62AD5040901
:10281000A5EDF05430420140F051CE01700250A9B4
:1028200000A42D3F030BA311522009047403F08070
:102830001020072CDC0204115A33760309A5117607
:10284000400F3229203C01A6E0346D06F0D322E08F
:10285000FB7D0127B40222315E5278204D0C30E519
:102860000611527F1F80041176E4FF2085018FE35B
:10287000602309E4FFEB600875FF0153CD24B42009
:10288000070743CD02ED600553FB286B0543FB2092
:10289000EF6007202A0243E14040AA0253E1BF2132
:1028A000072F920920E20320E142312D70072F52B9
:1028B0000BE0700122312D601C7FFF312B6F6D0A00
:1028C000201278A834FFFDEC34FFFC600F02AD80CD
:1028D0000C4026201E00E4200700F040900240112A
:1028E00076209B074A115A7F059043F4270501364D
:1028F000F720072E7D5398001B600A000341B000AB
:1029000010600A02050B903227094401F07F013163
:102910004022017027E300FD805A003C4B82204595
:10292000030143FB1040A701E640321F200807E5E2
:10293000E120E7FB43FB0D40C30D0E80FE901249E2
:10294000E0FD7F01EF7011ED40CF030143AE0120A8
:10295000CF080153AEFE22EFB40114201E01EDF0AA
:10296000A0184193201807FD2280D190425C1227C5
:102970006A08425BEFF0C2541278B2289F1A42797B
:102980005F121E494003A2542231EEE0FE90425FE6
:10299000E0FDEE6D702CEF31F323C6402F652D2046
:1029A0001B01700820132219018008204004E03127
:1029B000F3E4F0201404FD3192D254203B40122E57
:1029C0005D0306A42479486236B203229043B662BE
:1029D00039029043B5210E0678B2D24C121E4E2019
:1029E0000C02E0FFE420356008041274D251644008
:1029F00009021274B2626B0A205517D2557E747F99
:102A00003C7BFF34A50857EC7E00BEFF05BFFF22CC
:102A10003021FE00252001012401405E48C1509B69
:102A2000244E247C022290392EAF03AD9039BE2073
:102A30009D32F70212651B413006E630E00E9039F8
:102A4000BF20130AFB7A3979BF125FE09039C94E73
:102A5000D70E2DC6C0E4F5FFF5A490120FF0903903
:102A6000C026780275FF0320080EE0FFF595EF14ED
:102A7000601314601C2402702720550B515FF1DA9B
:102A80009039BA80169039B2800B05BB800A903914
:102A9000B6800B00BC205004CDF0126ECC20062175
:102AA0001D0B12793375F418806790120EE02531F2
:102AB0000439C0127915207F0FE0701B9039C9517D
:102AC0005F9039C5126F7BFBC3327C015009200C2B
:102AD00002515FA360B400CD2106046D4D9039BD55
:102AE000216E208307FDA2359232126E7A60390082
:102AF000136027029041F8602920A002126ED920AD
:102B0000070B51511266041279E6600241AC60274E
:102B1000014FA3E000C404127A58701C207005B164
:102B20006EFC78011224E0203603FB126F6D204109
:102B300002EB515280370170D420200F1278862486
:102B400020FFEE344EB190127A09B17EC02E00C142
:102B5000202907127819400343F420208B023312F6
:102B60006D60630324FF9231201C04515F126A11CF
:102B7000213D1B75E508126647E59B30E7FBD1DE7A
:102B800012654A43D5047FC8D1F1B148125FCA2209
:102B900055053979BE12667A4109350501F1E721FB
:102BA0009A20080303D3800123F9013AED40610420
:102BB000651B903B02E1058D060EF0A3F0903AFDF7
:102BC000A0CA013AFDE1078F013AED217703D490C5
:102BD0003AF9218F013AF1800B00FA218F013AF581
:102BE000800B04FBE0903B06618F013B06E1018F07
:102BF00000572058418F013AFD418F013B02214F80
:102C0000013AFEE10289013AFEA18920346189017D
:102C10003AFC44DD02FDA234618700A3202F817FAE
:102C20004090417F013AFDA17F04EF6002813CE0CA
:102C300000AD41780321FF7E0423C7033B02B1733B
:102C4000A14E2034E1067D02EF70CFE1005E00343A
:102C5000815E2108E10C8C01C231216C02901213BB
:102C600022C226090201E4FD59FE01EF2D230123B2
:102C70005F00E0242F0913E02CF00DEDB412E722E1
:102C8000607807E0F8A3E0F9A3E0FA2C010512222E
:102C90000DE47B7D2FD134466CD1063EFEE43DFD34
:102CA000E43C26E8068B125E0F903E91417B0500C6
:102CB0000001903E95205E07F5FFE5D554C07005F4
:102CC0005668236C21E00253967F24360575D5049F
:102CD000125FC120080243D50840140194FB20195B
:102CE00001847F21FF009827F3068FE5F4F075F447
:102CF0009C201E06A3E5E4F075E42521F9023E7947
:102D0000954369013E95276D046002C1BCF52027FB
:102D1000028E741427DD0291515F4291007F2009D9
:102D2000220007E5A730E1FB43A702200D01515F18
:102D3000200C06E005E47B01800270850AEF4BFF62
:102D4000EE4AFEED49FDEC483551402D204327A6C3
:102D50000170BA200D2045001022D7077B6D7A4EF6
:102D600079C6784120E802EF243922C70330B190B8
:102D7000FC203D01790140F209EE547FFEE4FDFCA8
:102D800012790860310DEB6FFFEA6EFEE8CDEFCDF2
:102D9000CCEECCEC2091038B125FB86A046009037F
:102DA000ED1270E8240C03E030E60620E40275968C
:102DB0008020D102E4F5D520E002E0F5F4200B06F6
:102DC000A3E0F5E4126D9B40D4C2C54027048EC831
:102DD000125F8D201E0A53D5FBF1CD7F147E00D1EA
:102DE000FC244802439180258936FD019402492440
:102DF000020874FE38730AFF3EFEEFF592EE540FA0
:102E0000F591201C0401E5D520E721660BC238129C
:102E10006FBB202102E1BD53F43077330209125D0C
:102E200072F1E730220543F429B50253F4BF20665E
:102E30000153F530C300F361D406EA42F5EBF5F631
:102E4000D24035037FC8D1F1201C15E59320E6055B
:102E5000125C3140F3302259E5F430E3047D2880E0
:102E600010200800E240080007200803E1027D2846
:102E7000209D0228D1F1402602FB7F7860080D508A
:102E80002CF1E050F7126FDCEFC39D50EF200B05E3
:102E9000EBE5F720E5E6609003F1CD80DD207A0BCD
:102EA00012781F400643F420126640D320B301037A
:102EB000E420BA232C36DE2494200540C601E433F6
:102EC0002019040143D810224E600670121247A147
:102ED000E04F281A600301700363EF2AF9043729D1
:102EE000EF604B221B02127923587D3A370623E00C
:102EF000C394C040EC6013002540130010403A001A
:102F00005F203A600302F460E547E22214294C0195
:102F1000372927640021522F203F0BE0FD121B743C
:102F200022AE07123DF9EE2CFC018EF0383404225B
:102F300030170C905AA40E06FF1219ADC2173019A3
:102F400023AF679006D62A6B01C39E2D1B089ED324
:102F500094024010C21922401306F42FD39401406A
:102F600002400D0103CC4644024C700A2009667DE4
:102F700051DB200B66540B4E6009CAEECAC9EFC97B
:102F80001226D220E40402D2ADD2BD200605758EF1
:102F900071756E0920080AE58E546F4480F58E9095
:102FA00042608349060022C0E0C0F0C0341005C072
:102FB000D075D008C0489004E58E30E43F802C02E4
:102FC000EF4410A02C0420124D8AFC603600AD3472
:102FD00037AC210AE56E30E0020559E56E700D2030
:102FE0005F0B0567E567700205668002156E403E5F
:102FF0000B8530E40431610571D0FFD0D0546004FA
:10300000D0F0D0E03220180243851031140840A4DB
:10301000F0023D2D9040AA876E0740A71225651249
:103020003E262010041278D53168601067C48009EC
:103030002C9D03B4FF04E44D02402A400F00FF29F9
:10304000AC0D76122565D22BC2EBE51460028135FA
:103050002AEC00E222A1049184E924E530CB00FAB5
:10306000402E13126654918AFAF1DC9006B7F012E2
:10307000605D900979EFF02B1904E074F19D4081B7
:10308000A8201201E0FF21D40D09797A125D8EE4A7
:10309000337004D2EB8118401504246B127A482651
:1030A000E102097AE038FB0542D2EB1264995AB585
:1030B0000190063C620016E000660174012096054E
:1030C000431504123E1B2BB20106D73709204E349C
:1030D00027087C587DA19040AC746447E0063170AD
:1030E000C322F19D509B1123050012BB0F3B090128
:1030F000C21920A20C1220F65407C39403E49400D2
:103100005032405B03B1917DFF400703D8917D2F82
:1031100051DC239C00402AED0394804013401602AA
:10312000E5F1D58076409100D360F4000820F406E4
:10313000CFE9CFF5118F124021204006F516AE11D0
:103140001273DA400D00B2201C058B1CF51D891E80
:10315000400D205401F51F807506FDACF0546060F1
:1031600030401500D9207218126473C22B916DFB88
:103170007A009006D81278A07D1812202DEF2BFF30
:10318000EA240D062414FBE43EFA7D31C9018108CE
:10319000803C02540790215802751408403E40625A
:1031A00003FA1263C2400B206001FFAD3F760005B9
:1031B000201F58E60A247B01FD913D1247B05005BF
:1031C000412F00A4610100E721D60B2428FBE43342
:1031D000FA7D03E4FF8108602B0402702F914020E8
:1031E0002803400574FF802807E5D25480440AF57F
:1031F000D2402D2081202D208102B1C7E42B5A041A
:10320000FFB17680544008605BE0013205918AF19D
:10321000A57F053273030AEF547F6040024FF5D259
:1032200020730743D280916DFD7C00401F017E001A
:103230002C8D130A80027F05EF25E0FFEE33FEEFB1
:103240002DFBEE3CFA7D01405C20DE0AF1CEA22B84
:10325000922A1260BD4006416300C32EFE001B424D
:1032600016619502E7B1BF401403D2EBD322800769
:1032700001C322208B62910045217A216C00FA2043
:10328000AE223B22A2201000D8A01061C9A6DBC04C
:103290001B613600E9938B2D1120162D3820056017
:1032A00038000420381022903DC5122565B1B2E9DE
:1032B0002405917D903DCD2E2D02C5D1AC400A0252
:1032C000CEB1B1206606903DCFF0E924064010094A
:1032D000D0B1B1917A04903DD1F031A506CCE09403
:1032E00002903DCB2EA8014028203209F181917D2A
:1032F00030E1031219A32014282D22A5053D79CD14
:10330000904129205C03903DC8122356061E44229A
:10331000903C2012200F013C256061033C2AB1AA99
:103320004061013C2B20610103912010052CB1AAC2
:10333000E924024009042EF090379F487702903C20
:10334000326D5506903C28F1BBB1AB20B505917D9F
:1033500014903C312010204B0445903D2612205102
:103360000D3D29F1887A3C792A121D09EF60033757
:1033700002203602F1BB7F3A1326BF02D102E55E7E
:103380001D200A04F5D1EF6008200721AA0080461D
:10339000DA0453D27FEB6040080343D104EDA00868
:1033A000010822205A002521264109200601FF128A
:1033B00041640003212B01FAEF57880B09ADEFF0B0
:1033C000ED24FE60191460262B16033BEB240252F9
:1033D00054037C007D5022CD0A7D60801EF192C393
:1033E00033CE33CE3D8E20140228800EE0040F062B
:1033F0006412203F9009AE655F204B08E0126726FB
:103400003406F583C025272CEC029009AF2BD2217E
:10341000DA06AEE03400FEF1C844DC265B03903CE3
:10342000BB1220E5013CC0813700C520A101C012BC
:103430002152219E013CC64401A13500C9401841DA
:103440008A212100CC214100A161410137A6A1417F
:1034500002C3F1AE60492135013612204F013D39DA
:10346000613503C5121D27A1350337A6F1AE2135FD
:10347000001240F221440209A71220264005064509
:10348000E51BD1EDD1AC210508D1EB127772D1EC5F
:10349000F181200B06FAE513D1ED918D2012403019
:1034A0000005401158AC651D2036225C01431220F6
:1034B00040043D46EDF0A340BA04FC903D4BF0269D
:1034C000BC00E032F8004A215F01471260C4015499
:1034D0000C232F07027E01903D4DEEF040D4043DB9
:1034E0004FF07E0027AA077E02EE4405903D4E4035
:1034F0002A40D602903D50200A205340FA03649F90
:10350000702B20A509917DB40405AF04121D18800D
:103510001903903B24126073255D043B27E4F18B73
:103520002288034A121D1D80D4030322AF052616EC
:1035300000EF273E0122EB2169740E090322E5F416
:10354000C330E701D322452A024410453125277AAA
:10355000213F6138A00C009F800C301B33AF2552F7
:1035600003FFAEF02240F102740222200D0854073E
:10357000FF22F07E1D7FD62DA900642682017403F0
:1035800046840D1FEFC3940E500FEF123B95E07F62
:1035900000579805AE0780027EFF349005023DC8B3
:1035A000023BA834C54021001360210D5D7C00B5AD
:1035B00005027C01EC2EFE0F80E72023057D02E44E
:1035C000FF80DC243509031116AB071134EF2BFF04
:1035D0003A5D3E1D11C8A2AD9229C2ADAF67AE667D
:1035E000A22992AD22114E226A090A02202DAD07AE
:1035F000AC06114E34AF35B5000854B50C9CFE80B6
:1036000013EDF4FDECF4FCED24012AF003FCED2FA6
:10361000FF74AD0203D1E04E2C051166D3EF94C8C0
:10362000299900223A8501D7F0267F1004F022A2C2
:10363000192212579D500411C04003301988B70257
:10364000E5F7542CF40522AF14EFC360212960B6CE
:10365000020590063D070222E517357C200517C3B9
:1036600094F0501F5317F0310AFE740FC39F4005AA
:10367000EE940E400543172FA402EF421780252237
:103680005D0FE517C4540FFEEF903232932E2231B6
:103690000AFF21000340027F0D2010131493FF2224
:1036A000EF30E303AF1322AD1B201A04EE30E00B22
:1036B00080560E2031628018E5196006FDE4F51988
:1036C00080128014201B20780760043117AD07AFEB
:1036D00005271F16B8E0FDFFC3740E318AEFC4F84A
:1036E000540FC868FFEEC454F048FE202608F0C30B
:1036F0001247B17F0050022027019FFF270804FED8
:10370000229042742F8C131211E0F46005A3E0B4F0
:10371000FF0C9042767418F0A37413517D2017208B
:103720000F201F001220070077429500642BBF0175
:1037300041FB203508E0FE64086004EEB4042FF875
:1037400003757428F033F420070E3AF0EF124A5252
:10375000122337E451FCEF24D82B81093FFEED34CE
:1037600093FDEC3416FC38BC078079037800122EE8
:10377000454B82014277229B054276E0C3318A2283
:103780004D2BB10AECC0E0EDC0E0EEC0E0EFC04070
:103790006D301133F21951FCD0E0FBD0E0FAD0E0EB
:1037A000F9D0E0F8EB2FFBEA3EFAE93DF9E83CF806
:1037B000206E8022203A02EF2454206A020B124D20
:1037C0002BED037BA87A162CE1042E45CBEFCB40E2
:1037D000A70514605D14601B24AB040C24FC707AF4
:1037E00024F70275CE3164F70975CE21F5FF8BCF32
:1037F00022E4FA201404EA2440F5CE4007213A09D5
:1038000007318A740A2FF58274182D5106E4710469
:10381000C39DF5CF401A01244880220C90180A71EC
:10382000042DF5CF0AEAB408C4655C01CE01404915
:103830004052050EF5FFEB25E0602F1175CE0FF518
:10384000FFCFEBCFEB75F003A4F5CF227B642D798E
:103850000902220D9325E0FDE433FC2016001057E9
:1038600000250A2C8212EBFFE4C313EF13229040D1
:10387000B5126A0AEBF09040BB2D8110C23691B9A7
:1038800091315005E5FC20E6F7913CBF0125B705D5
:10389000FC75FC408007200C030202D3222B870218
:1038A0009040B62C22016F862B730553D5DF53FA57
:1038B000FB204203E0FFB1724017200A06B4080F54
:1038C000E0126F6D4E4B0852124D8DFC8003124A70
:1038D0005029069040B7E0FFF1D320352BC607757D
:1038E0009B0491B975FC4220670AE104913140F4D0
:1038F0009040B8E0F0201803E59B20E760104008F6
:10390000327120290A1F1264FED236804C912AF1AE
:10391000205F00B624C52D24005D305E4076039103
:103920002A3191400F00FF401902FEEF4E200B1A82
:10393000F0124D48F18D7B017A4079B9F177500F43
:10394000C39040BAE094209040B9E038A405E791D4
:103950002A12667A3C93033602612920F4ED004B6B
:10396000603000BB2B640203E5918496087FFA1255
:103970004EF1E5FC30E6409000F7400802037F037B
:1039800020202D38400A050222E5D57F003CAF26D5
:10399000F803B17243FA346E19FF53D1FD43D101DC
:1039A000D2379043F7E5F4F0E0547FF5F47F827E60
:1039B0000091BDE1005402303708201C00E02BB418
:1039C00000F4E1026A60546D8D04E5F4D330E63012
:1039D000A0137FE87E0391C2024EF5904268EE127A
:1039E000578B7A42796A20CD031490426A6441046D
:1039F000904269E09F201B03E09E400B4006445527
:103A000002124EFC263D0A5E127768E514707612AB
:103A100079F8644E03C237917720154021058E1145
:103A2000F512A31225AD0D06B9122565AE11AF1220
:103A30007DAA12642E20B81075D901F510E5155431
:103A400021602BE51530E504E421D003E4900963FF
:103A5000272D0263E00432CC0151EF3B77200B0F9E
:103A6000C3941040EB7F02121DF45315DE9006B58F
:103A7000256001B4032102039167D2EB4937C11FCE
:103A800000022D7327E1059A80EF127916200908AC
:103A9000539A7FD322904278EF2693000F20EE02B4
:103AA000913CEF43DA40F0602C007F20EF20BF070D
:103AB000124EF5D11840012260B4024278E020860F
:103AC0000353F4DFD220C2057F787E00D154203921
:103AD0000453E4BFE5E431F1081279AB7F8AF1A821
:103AE00030E623DA0579F1B8E4800A201C600A0187
:103AF000E5D92B48200C0243E4404E3F524360542A
:103B000008D322EBF0A3EAF0A3E9253C03F730E564
:103B10000F255C01C07041DC03F1124FCD53DC4036
:103B20007520ABEB01C94117E004E42BDC00222334
:103B30003D2FC008F16CFFAB94EF4BF1B023F61FA3
:103B4000FAE59130E71EF16FFFA994E9F582EF45A0
:103B500082FFEB2DF582EA3CF583C3EF9582E5F019
:103B600010958340DDE59120E708CEECCECFEDCF78
:103B7000F1C421A602C2EFF06EE801D221200B248D
:103B80007F04F2F0D222A3372805740DF0124F19EA
:103B9000217B01C3F041BE06739009C3E0706D4004
:103BA000AA0960EFF14FF162704DF14F201304F15B
:103BB000D96F600E200703E0F4703755C51130E16E
:103BC00030F1626018E0FF644A6012EF640A600D31
:103BD00047F100FF402103FE6F7005200706800AB1
:103BE0009006B6E06E20090770197402F080A1906B
:103BF0002013000F200408E0B454057433F08090C3
:103C0000200B2403018088200736320006410D0472
:103C100080001264124090401300FF21360220E021
:103C200008408B0970F5FF2243F701AFF922608D40
:103C300003EFF0645521F90303AF93EF44650022CD
:103C4000211C05AD94EF4DF1B039280121A6C350D8
:103C5000414F03C2E17F1E21B401E707600C00A1C0
:103C60008013048122FED15423BA08E02224FBFFF2
:103C7000E5F034FF3741724104F9227F3FFE82169E
:103C8000205D414200FB206603018FDA2229C70232
:103C90001221E0225106EFD10F7F017C123770060E
:103CA000FE8D828C83ED2E3298217807E02FFF0E57
:103CB000EEB412EC529E006F3AD90142EF316C4ED5
:103CC0003F278300D020DD010D8F2BFA085BE0F544
:103CD00013121A20D3222286021754F02720012F14
:103CE000FF42E002027F0F27170A2293FF227E1075
:103CF000EE60091EEE400C03B507F4EE6734017E5A
:103D00000D200F67340724FD600680007E013231EC
:103D100000FE2838029009AB20962D1E01FF112EBF
:103D20009700AC800B20230A130470089009AA7432
:103D300004F08021B202AA740846BC20070302F0F6
:103D40007F012348202A41A803AAE0FDA32B2F25A9
:103D50000913F0125B2150E9D3224315015315DFFB
:103D6000125928116D40245D011422246405531555
:103D7000FB302A0B213C846A05800A7F5511EE40F6
:103D8000034CB8211A2446437B05E5FA540360FA34
:103D9000200F0A8FC3D322C2AFEF4215D2AF20AF9C
:103DA000469404FE6005800024B324C024CE00C0E5
:103DB000F0072E204124F1037F028009E400DE0594
:103DC0008F18E518640227871E07E5141226726112
:103DD0006D0161800261ED08618B0961960A61A441
:103DE0000B61C10C00006388203C0C75C355151A8B
:103DF000E51A6002618875144004401203F07514DE
:103E000009200F400A035575140A600A089006C974
:103E1000E0F5C375140BA00D00B6600D0801751A0E
:103E2000149006D871F08040110C6188AB1CAA1D5B
:103E3000A91E71C2AD16AF1F9105E44E21071255A0
:103E40007675FF0071E7210D200781072EB006610E
:103E500088C2EB7514002FB70571FAE094FF40207B
:103E60007DB0D601618820BF284703618871CE40AC
:103E70001605E5107022719C232A08556004EFB4E2
:103E8000540BD21971A906EFF041FF7510022053AF
:103E90000175D9204D01E5102EB9026071A3652C82
:103EA0000045645305914F310D900638480171ACBF
:103EB00022610A90072CF0E0FFD3940940252014DA
:103EC0000BE0D39402400CEFD394AA7F0022403C35
:103ED000F9201F20140040800E06EF600471B680A8
:103EE0006F401301F5162062058516D97510036021
:103EF0006500036099606700564BEB00FA606B0148
:103F000071B620254057304215E5D350055402FFC5
:103F100080035401FFEF602F30E111C39006C320EE
:103F2000E4029006C220050250188026E50106C56D
:103F3000200A029006C42005015007A0F902125E73
:103F40002E21160337125C77204C0171D56D910735
:103F5000C2EB431502719CA32273071224E0FEEF0B
:103F60006E719B3AC604237195A3A32007002540D8
:103F70000738D1029012265982024F60162059004C
:103F8000C72053029006C62005E00059201500C145
:103F9000200F029006C02005E0001501751060B2E8
:103FA00004B403091516412305E516F09003CB2050
:103FB00005F2043300FE605906FF851282851183E5
:103FC00042B403F5EA75EA245C0B122407F582E497
:103FD00035112230190831426477002222EA08E9BB
:103FE00071DEEA540F42D62244792B0D0AE5D154F2
:103FF000FE4402F5D122F5D7201D0153D625CE006F
:10400000D230500214F5D2BCB503CA45F02220A02C
:1040100000BD209A029006BC40420C8FD4F5FFCF21
:10402000EDCF8FD522C221E4456C05C222A3F0A3B7
:10403000226229E000BD40280175D1CEB705D1F537
:10404000FFEF71DE352D0142D62065403C00D440A3
:10405000800606FFBF06037F08A00A0304037F044F
:10406000A00A00024812027F012262C5001322DF6B
:1040700063FF23E4325E03D830E50745DB023AF004
:1040800022400600E6609E00BF609E00BE2005E064
:10409000018101D154675B24170B5E989009D0EF22
:1040A000F0BF02028014200904E0B43312E4442F6C
:1040B000045E98BF020D201045A90105E420080008
:1040C000F0200302E0700D462C928B021237C440A0
:1040D00012412800FA36DE0275FC80237A0253D59D
:1040E000EF89CA26EA297501E6FB2177050243E13B
:1040F0008091FE201C01438E3BE5020153DB976C4F
:104100000502124EEFB14A80130143DB403C03E449
:10411000F5D522395220230022213C0470F0A3045B
:10412000F020070173F0805F00FF443202E7037F55
:104130002CCC213F03E508D1404442001A20170847
:10414000904272E5DAF0E4F5DA200B03E5D630E3CD
:104150002BC7007320B700D199B200E4203A0303C3
:104160008B95EB2BC005D1040BEBB4034A0005750E
:104170009580124EDE207E01D504202C02E0700BCB
:1041800020AF047FC8124EF1207F29A20842797126
:10419000D17A904271E02086047006E044043F9298
:1041A00022C8014270216C3961371802124FE72092
:1041B0006D207902E0F5DA201726B40390426C12E4
:1041C00076292008312401A3A33CE702E4FC7857B8
:1041D000BF018FE1401322EE201337A90178083781
:1041E000D3018FE26013231F3DC9204A0253D8EF49
:1041F00020062A88030475FC4120080022232C0194
:10420000E0F42EA9006FE0000324480109EF2778AD
:10421000244D020A010F24CC04EFF022C230202BDF
:104220002ABD200546D90B20E71BE59A540FC394FD
:1042300002401229FD2114270B02A143FC24C202D3
:1042400003D2304A5C0009801F010540219F0230E3
:10425000E61146AB21BA6B7E61B0023030032AD939
:10426000207D0C15E0302C044402F02254FDF02295
:10427000225B00E020AA05227D021237748E242ED4
:104280005202CAF10B200502CEF11220EA04FDFC15
:104290009006D230CE4009E0010601EFF17101062F
:1042A0001224200223E2255CD300CA237B0622A22B
:1042B000EB922DC2EB34EB04BC7B017D0C37350552
:1042C0001B65A22D92EB40170B2EC2EBEBC0E0EA70
:1042D000C0E0E9C0E021892022009029380125654D
:1042E0006D2900FA2D35067F0C121B8DA22E202D74
:1042F00002901217219A209C2007017F0035C323CA
:1043000016400B045414FFBF145E7F0002222C40A1
:1043100010201C00E0C01C02C413542FCD05902DAA
:104320004EE07009205F052D7946121AD4400E0A1E
:1043300044C0F0902D51E054FEF0A3800B00554096
:104340000B03229041ED21D6039041F1E09FD46010
:104350000F062002392E121D0E21A2200B04121D61
:104360001390372AEF0E6512471D7E1C7F78121DB1
:1043700031121AFCEF35954F4B05021D409043F565
:1043800022370137A121FF00E0376B00243189017A
:104390001174200F02F0A3F0201A03E0FE70032531
:1043A0007302EE14FF201700E05DE90AF582801C1D
:1043B00090379F3165601AE0041F20AE0237798084
:1043C000487E031226D622726504E422903BCB205D
:1043D0009F41E704BB0575BB852249235A0520315F
:1043E00006125FC199B10743D520303102213E202A
:1043F0002206538EF7438E077D27E402FF8DBC2BE8
:104400003605B102E5B130E2533C0AAFDFEFFEAC56
:10441000DEECFBEBFFED3E7700C921A307343BF553
:10442000831174F5FF203501B1FD3B77010CCA40C3
:1044300069034A5F780922BC03A31174FD40280078
:10444000D3A02802E0C3133B880C13FB3158316C16
:104450002BFFEE3AFE3158609E13ED240490120DAE
:10446000F0EDC394075019CFEDCF0DEF3159610531
:1044700003C3903BD02C58053BCFE09E50B6208E16
:104480003A5F3B3C04120DE0F5BC400D00BB440E0E
:10449000240D406300D1A0630022611B014C222047
:1044A0006B21470013236F127C5107EBF031F0AC06
:1044B00000AD01AE02AF03C006C007201412316C7C
:1044C000FBAA06E4F9F8D007D006D31223457E00F4
:1044D00050A20B40200231F0D029B302D0E03E20A0
:1044E00029522A0153EC389E007C605A04EC540394
:1044F00042EC24AE0FEDF5AF75ED0275ED04A3E0CF
:10450000600543EC083A9C0EECF790427FE06004B3
:1045100043EC042253ECFB407B40C68068097F805B
:104520007E387D01FC022E4560F301A3ED25F101EB
:10453000117B20C607E5BD54F84404F5BD2DF431C8
:10454000E60E807E0431747A0879C55158A374143C
:10455000F0200914BD121E0DD2ACE4FF51BA7E0743
:104560007F2D7B057D2051677F2E8D030243B2C0D6
:104570002005018FB320380290408B2259029040D1
:104580008E24D003229043F060620351ABF5B42037
:1045900020200E03A3E0F5B5800901E0FE264307C5
:1045A000F5B451A34440F5B22012216D018FB32020
:1045B0000706EB542D4410F5B2245B0402E5B25417
:1045C0002D600705B4540F4410224045400E02539D
:1045D000B22D201C206D203B0080603B01AFB3203A
:1045E0006A0AF6EFF078807C377E0051EB200C08E9
:1045F000E0FF7DF47C01021D0420C90613021F3870
:10460000903FD82097228F04747D067193600D53DC
:10461000B70290377534AF070112547D903774F0AC
:10462000801602E92404600F3170202E000120154D
:1046300000DE4037067141718B903FDB203702026C
:10464000197B253020EB0209381220EB05093B22AB
:10465000903FE020092025007A205D009A600D80BF
:104660005D007B2043027A74FF20638053007C202E
:104670004D00E64027804D04E380B0746A2CDC01D5
:10468000D2F0213A04E4FF021B65A00611021D22AC
:10469000746B71BD74A1F012474B903ED21225206D
:1046A0001920370A93021B10AD07AC06903ED021AB
:1046B000B5029041F22018049041F5EDF04B9F03B4
:1046C00004A3741023EF20FB202B0312792B90649A
:1046D00088049041F29111200402122545601B01CB
:1046E000910920300EE0C39FFD023774EF7C002952
:1046F000F9EC3AFA548F0F021B8D9009511225657F
:10470000C256C2AC30576127440057274400572295
:10471000FC02942074398F07502C9008D9E02F2484
:104720002DC302E43407234402B40D12401F0804D1
:10473000FF900954122545EF2E5E00802BD12011E9
:1047400004F080C6C25740150151A6403302242D03
:10475000F9203100FA213180911009519111D2567E
:10476000D2ACA25622021C7D021AD421CF03E5E668
:1047700030E25048200700E34734200700E1684555
:1047800002E67F05850D02EF600720270253E6BF92
:1047900042040A43E64022EF14600F14601436F816
:1047A00001188B4380048DFD228B902450048DC909
:1047B000228BA0400705CA22AF038FB020090AAFA1
:1047C000058FCB229040AF12256520340311146071
:1047D0001820340A1EB12FE580B135E5FD801C207C
:1047E000090090200902C98012200900A0200902B6
:1047F000CA8008200900B0200900CB57670140B2E9
:10480000377C20DE204A2045200B232D01AF914725
:10481000D808AF9222EF30E00E43F4280D03FF4397
:10482000A404241A049624EF30E1E000110008A04B
:104830001104E20943F40220230575961EEF30E3CC
:10484000200C44D5017596486100EF2C940704753F
:10485000D7122275D72D4053027584E6204B009461
:10486000404B019814601000933CA80503759A40D2
:10487000B19B4041019C93202301A1A32004018509
:104880003120040186282CD60030230A4CD802752A
:10489000E74A21240275DF4920AA0143D3274602B3
:1048A0000153D32F9E00FF2136200B0275D82520FF
:1048B0003001B503200401B215200401BA0220041E
:1048C00001AFB3200401CD0A200400CB40AC01CAE3
:1048D00012200900BF33400775CC96F5FFF5BDF5F2
:1048E00027910081200401AEE1200401DA55200463
:1048F00001F580200400E9404401E93320090197D3
:104900002A4059199B42759CA4759D29759E48752E
:104910009F2475A11275A312759AF820330C20CB31
:10492000029680902EC6064440F022CCEFCC23E9BC
:104930000974017E00C8EFC8088005D89D09CDEC38
:10494000CDEF5D601B303218404C01DCAD400501FD
:10495000DDCD20B801759A25D40275948421F42008
:10496000170053400501DD336017001440170004A1
:10497000601701E465401701D647231100F726644C
:1049800006A3124D6EFC780125F8200F03E0FBF121
:104990006D267107901210E0648060712C38067FDC
:1049A0005038EBF16DC058E5014A5FB4E8201D06B0
:1049B00075F004A4AEF0FB3E5903EA3395E0259070
:1049C00000E025770EFEC3EF9BFFEE9AFEED99FD0A
:1049D000EC98802B404F803A02F17BFB403401F48D
:1049E000044036377E00EE203311FDFCEB2FFFEA4A
:1049F0003EFEE93DFDE83CFCD082D08320780022D9
:104A00006846000143340012461503F8A3E0F96F2D
:104A1000C540B94A121102C32253FACFEFB40805B8
:104A200043FA308012EFB404200805208009EFB467
:104A300002200813108000D322E5F4541813131336
:104A4000541FFF22AFF4EF54333F03303805EF21FA
:104A5000F200F420F72EDB00E72043D32204127982
:104A6000ABAFD93FD94C15026002802A3D20210C02
:104A700030E30F124FE050F3F1DCEF60EE4009003D
:104A8000E9A34E0243E6102087235501EF22264179
:104A90000022EE03F70C00C000C001C002C003C03A
:104AA00004C005468B0BC0FF1170EF60161176EF46
:104AB0007F203910017F0023DB0BEFF0D257121E4D
:104AC000081115D0FFD026C00BD005D004D003D0DC
:104AD00002D001D000FF020E04E5ED5404FF406750
:104AE00025D20102FF25CF04E0FDED4FFF200C068B
:104AF00010FDEF4DFF43B4210B00ED343800ED27DE
:104B0000DC208502AFEF222002018FEF201002206F
:104B1000E0FB20072E25C6C9600A000826D400F74E
:104B2000201D204B40050601FF22903D54E0239FAD
:104B300012903D59E011E8903D5AE09000020220A9
:104B40000B90000140050143BA421439AD1560E0F5
:104B5000FFB40209740F315174B9F0800CEF640492
:104B60007044743D200D0479F0123FF0202706E0D8
:104B70006007903D5FE02B3E067FAB123EDF1245A3
:104B8000265801BAE0201205F070169043BB2EB8EB
:104B90000400400D7FFF201A400D0314F080EA2A24
:104BA0000C013FCA202500BB205E005F25C50A7AA4
:104BB0003D79577D017F03121C00200A04607F08A5
:104BC000712D2007045D7F0971132007085B7F0B9F
:104BD0007113903D5BE02812295A1006BEFF16BFE4
:104BE000FF13711A5002800471238009201A4D09A5
:104BF0000140F060120308903D5839BB37D32007BD
:104C0000000220600157E030681B71D90471E41480
:104C100071EC1571F417720A30721234721A36720E
:104C20002237000071FF21EC075350EF8550FD80C3
:104C300047400A0351EF800E600702DF80066007DD
:104C4000057F8551C9802C400A0652DF8552CA80F3
:104C500021400A0353FE80166007A02D0153BF8038
:104C60002D04537F8553CB21020D7F117105E4FF85
:104C700011EE123EE7903D5560881159E0247F60A7
:104C800009047016710B740A8007123FD6200800C1
:104C90005820A140AF017123418100F42FBF3D9501
:104CA000005D60EA0364104E7020C5065A740EF071
:104CB000EF6420A00B000F200B0040A00B00102081
:104CC0000B0080A00B0811F0E4B5070AEEB40160F8
:104CD000310012A00D0002600D0013A00D00046051
:104CE0000D0014A00D0008600D0015A00D0010604F
:104CF0000D0016A00D0020600D0017A00D004060F3
:104D00000D0E18F00246DCEF4420F5FE227F1071F4
:104D10000520D521B9057D02021C00902223032421
:104D2000FE24FD2251005B27FB01A3E44799017D8E
:104D300001201914FEAF01E4FDAB05E4FCFD904237
:104D400005EBF0023E879038EE23DF019038275ABA
:104D50000965E4903917F0D39038F657530238F5C7
:104D6000E0222700012053037A3879F7400E2D13F3
:104D700002903F3F7BB46035032012444F603804FB
:104D800045E94A600F203B08E0F582758300121F59
:104D900077427A000040100124F744320038276738
:104DA000016F6023DE40120104FF8062009F4052C9
:104DB00003940050BD23E605023FCA903D562CEAFD
:104DC00000E4200600F0462D02EFF5D8251F02531F
:104DD000D60F29603A7A06F0C8E4C4540F48302749
:104DE00020152FAC200509E5D1540133333354F895
:104DF000FF400C0AD354074FFF22EFB40109D245FC
:104E0000760443AE4022C240080153AE276904C86D
:104E10000122E5C823670275C8024008236A03E43B
:104E20009043EE232A00EE284906C0505DEF91A87A
:104E300034399E04E0640170494014800E01E4F0AE
:104E400020FA074379EF124994501B401602FE9155
:104E5000B24AB3004C357F0843EFE0FFEE91B291C8
:104E6000C82C14401A06FF75F006A4247640EC20E6
:104E70004821730191D240162843019A22601A00FA
:104E800075201A800900772009402400222E2F0067
:104E9000742891002240532C7E028C832227D6084E
:104EA00006047005D2A822D2AA44C525DC02903E91
:104EB000764096233F0308903E75205801C2A845CE
:104EC0009202D0E03224E5601F007CE0011F007BED
:104ED000401F00AAA01F17EF600A75F28075F2400C
:104EE00043F14022E5F130E70653F17F43F18020A2
:104EF0000A09E308E5F230E7FB75F2C0E003186445
:104F0000962006234502E4F58E202C002225CE00B3
:104F10000C200D07E58454FC4403F584200F0004A5
:104F2000E0000F0002600F0002E0000F0001600FC0
:104F3000000163A10184FC405701E40F203B2002E3
:104F4000025385F02005018F86405809EF540FFD6C
:104F5000E58554F04DF54D3405EEB1C8F586226176
:104F6000DE01EFC421DE20810803D2EA22C2EA2258
:104F700075F220B301F2C3392E2EF303F56AF56BF7
:104F800040B0022675F220BD0BAFF330E407756A1E
:104F9000008F6B8010769112F56B85F06AE5F25404
:104FA0000F426BAE6AAF6B227EFF7F220949670218
:104FB000014384675A01538451122088033FEF4212
:104FC0008520C5000120E703102253F12594600BD2
:104FD0002C5F00F1859501F101200A00FE201604E6
:104FE000020343F108201D070353F1F7EFB4030553
:104FF000200D01800720FF0008200F202502803FA0
:10500000ED200B2053104385208014EDB40107D10F
:10501000C15384F78009ED26EF07D1C1438408EB23
:10502000B410401F075385EF800AEBB420411701ED
:1050300043854928059042EBE0F58EA1680253852F
:10504000DF20440922D1DAE5B6540F4EF5B626C565
:10505000018FB721280002200F0120FE20172130E8
:10506000201640110275BA40201702EFF5BB20054B
:10507000231403F5BAF1142C7540312A1800B72017
:105080000C00508027403900FF2004020F4F2220DF
:105090001400808021C0530510FFE5BA548046B744
:1050A0000143BA41E90002200E000F204600BA81F8
:1050B000302D040008406B0653B2F722FF902A2CD3
:1050C0006D0245E9226CFD04A3022565FE400E0336
:1050D0002402F9E42B6B00FF200B05A801AC02AD04
:1050E000033FF7200B06900004021F77A328B601A8
:1050F000F0A3600F013FA1203123400612792190D7
:105100004178122C5802127923401902E9240760D1
:10511000410929F9EA3CA801FCAD03122BB6031F93
:10512000382409601557F904FD8F828E8326920971
:1051300026D6E4902DBAF0A3F022A05704F9EA3461
:10514000FFFA205600FA2F4D4C6735090410022053
:10515000CAE02687204D023E22C4485E33A500FFE8
:10516000526A523302D39401370B0A1237E3900389
:10517000CAE09003CFF020070104F0237840884074
:10518000BE0322E9240B80771303CFE0FD75F0AA5C
:105190009003D4122539AF82AE83EF22FF49E1029A
:1051A000A80708402C01E92F20604C620365022506
:1051B0007A254C0013209F001B20DF002263BD5284
:1051C0006501E02220A9400104227B017F072C8891
:1051D000409606FF7C0022EF24FF3E5001FFFE3B7D
:1051E0003F44240174F583FF24ED0CFEE04EF0A350
:1051F000E0F0227F04121B8D40F9391C20482567FE
:10520000205100FB204740E401242060A000FD273E
:105210005202EDF022401C0290093B658420970960
:1052200065021F5EC8ECC8C9EDC929F104CBEFCBFC
:1052300022E0651201F5F4604805AA06F90226D2BB
:1052400061BF200A20AC03F5FFF596226F0375D7E6
:10525000092241A9201102FDEDFF201F20BA01748F
:105260000430D7001241C80B0222A905AA06AB07D9
:10527000229040F8216C01AF033B5600EF20210340
:10528000F0FBFAF9207F017E002030207C04EF9DA6
:10529000FFEE9C6009021221212A3B0C2290001390
:1052A00002200BE99582EA958320490065329F0030
:1052B000224190011F2921912452760802242CF9C1
:1052C000223E0274402228E80144802C9642540079
:1052D000EE20070312254574224201F974254A0085
:1052E000F021D4400F0005200F0B9039C0E0FF14CF
:1052F000F0EF22903AFD800807C2EBA2ED9218C2AF
:10530000ED21BB000C404C0722FCE4FB7A04F9F8C9
:105310002073004542390722FFEE5CFEEF5D4E220E
:10532000B800FC20A808FD227C00FFEC35F0FE2030
:105330001F00654E76200F057D640226FCFF7A155E
:1053400001FE22418F0308F5832227F80252E0FF75
:10535000213907F595E5F4540722FFE0FD00E0FD53
:1053600000E0FD00E0FD00E0FC0011020002120B75
:10537000120E02060102121013BB01B00620091220
:1053800013C0142000650404010214251433001313
:10539000FF0401E509440E7FC67C8E74DB6C3F0080
:1053A0000C4D496F20FFE0300008903EDB7420F088
:1053B000903ED5668F01A3EC471F00A326AB00EB00
:1053C000201306DBE0FB903ED7E030A311F582E925
:1053D000F5837880EBF9E0A3F608D9FA903ED9E09E
:1053E00001150030C01503EB25E0F92048475C03A8
:1053F000FAF582EF4BFB03A3D9FCEA600A1FEBFE30
:105400007980E4FAEBFC7830C083C082E6F5F0E7FF
:10541000A4FFE02FFDE435F0FFEA2DF0E43F06FAAB
:10542000A308DCE9EAF04B7503A309DED535460095
:1054300077E00990013F7D2090023F79E037B0028C
:10544000F582EA609000FA409004DAFA903F7BE03F
:1054500001150030E001150077E0001510C37880D9
:105460007930E709FFE6083FF0A3DBF6E4333029A3
:10547000013F80E00A63008640630082E00037203D
:10548000F4E000630084E00115E002630080E000C6
:1054900015E00163009FE00063014030E002630714
:1054A000904035E0FD904032E00031027880EDA080
:1054B0005D03EBF404FB202C490802F582EC401953
:1054C00000E020AB0E6FFEEB5EFEEF6EF0A3DDF1B1
:1054D00022900891401D024C600920090A1274CAEA
:1054E0001226D622229009B027903D0D093729F1C6
:1054F000B0715345F060216012004531AB0202C02B
:10550000014013285504F58285F08331880202D0CA
:105510000340351CE49009CE12FB38FF713FE05484
:10552000F0644070026105E4FE75F0EDEE7144E058
:10553000FD2DFC0C9009CFEEF0E4FF8023EDB402CA
:105540000B200C07E0B4FF04EEF0800FA0220454FF
:10555000F0FDBD803A94000E2F7B03C9EF6006205A
:105560002136D7200501E0F4404A031258AF5020FD
:105570005101E515321801610540160890000AF145
:10558000D0E030E40E204003EF90000C2A1B02E034
:10559000549F6031029000BE201A284001BE05A031
:1055A0001D00C2401D0230E120403828C503ED90A7
:1055B000000940110220E52E200C203D00C1400DC5
:1055C00001B4FF601F20110290000B201042540212
:1055D000E0440129F3424100CF4950403F0612DA2E
:1055E0002F1251AE50602B01F570202D20E0347A3F
:1055F00020FE007437CC020779F020A401E20233C8
:10560000542006002E2A3F0137E3211201FF5441A6
:10561000130215713F2C3500F0200F3C8B01E57013
:1056200020490331BF800A202801E005616D204335
:1056300000E03E4020530AE57090000702253990B3
:10564000429021770DE924E0F9E43AFA0220F6D1FC
:105650004A4AC33B46084002C148E924B7D15B57D8
:105660008A130979D312E840300C0BD14A2402D1B5
:105670005B30E50281C6200A07B6D15B12CC1D70F3
:105680003A200A20280D30E731F1761257CE540720
:105690006403702620130AB9D15BD39440501BF1E8
:1056A00076EF39960402FFF19CF13C3D0212885DD1
:1056B000201B06BBD15B441081C120096039022147
:1056C000540F2F7F061B121F5E30E70F2014201E81
:1056D0000830E4067E007F01801120050100804033
:1056E0007920292CC30C7E00EF4E6015903B3CD1F5
:1056F0005554FB2A4820730120F6205F0203F1F580
:105700002038209D0120E2809D00DF407E01054081
:10571000200C602C03FF30E42E2020000340E60123
:10572000EF5457EA200D0006626704F176F19CEF12
:1057300020B60E02C37001D312D8399009D3E04FBE
:10574000C136201F60430203500C200A00BA210A10
:105750001212A48F8008900870E00412A7F8D14AB2
:10576000F1A274052081401009F4600712B61850A8
:1057700002C139202A203504C394065021809AE0C2
:10578000015702EF440160FD20370006203706C1B3
:1057900039300C02C142C030010740200C60AA0120
:1057A00020E020092016215F02FFC0072008207B8F
:1057B00000FD2006000840BB00C06321200D07B19A
:1057C000D15B903F8ED14940F30654034401903F92
:1057D0008F200C00DC20D104903F90E5F0424C83F8
:1057E0003B06D007121BB0EF7020530412776024E1
:1057F000052179082012775F24291255BF20100255
:105800001279B5208B2008002438E3033A1277FA86
:10581000205A02EB71532021041277CEF1F64E0884
:105820000179DE201E0F1277B8740775F0D01221AF
:10583000A6D14A12FB43202600DC203005FA741B57
:1058400075F0B5201460EC01AEF03192214C61EDA1
:10585000203401240420C220290002806B01240688
:10586000200E057440C39F500821050DA9742F8098
:10587000167411D39F500BEF24EF202604F1A9EFEB
:105880008005400600E42091203520E12015E0034A
:10589000F640520231F18780D72D3720890397A631
:1058A0007B018113201C061278E77B01F18B801F9E
:1058B000017F116021216D0007204F227B0006210E
:1058C0007D216022EE0802B01CF1ECE4FFD1622BD6
:1058D000F8601000E9332E3AA3230762202D5908FF
:1058E00090428C12776B12F7CEE300100BE173122B
:1058F000F7C49F5013E0FF940434EE02027F0420AB
:105900009C05BDF18712FC1820FC01FC44217D217F
:10591000F902903B4A200800E840080050200800A7
:10592000E940080051200800EA4008005220080021
:10593000E640080048200800E740080049200841E8
:105940006E02FC02EFA08A05129B61E4903B35CC0D
:1059500004428CE060113EE60245F18B2F4B043B84
:1059600079437F0520D04016027F016053630142D6
:105970008C603303D15530E322DA017151254600A2
:105980001F201400E021340212FC0F811440170183
:10599000F1D781102544201903FBCC802C20B8229C
:1059A00028202F3D58202F605E0040C030401AE074
:1059B000023201F1EC612200652E556008212300BE
:1059C0000441F82D82612B029040F12E29501300E2
:1059D000E9821107EE8FF00221A624DF6024012462
:1059E000B1600685DD03E924DA22214E056010EA64
:1059F000494B6043D223AE244C03D20C22FF2491A6
:105A0000248C02FDACF065F41122D223D22412D8EA
:105A10003DEF2212BFE07B007A00792F4A034DFF51
:105A2000E5F0605A029009C4669D011287246F0553
:105A3000DC64026005EF24721816114C25E0FBECC3
:105A400033FAEDAE047803C333CE33CED8F9801CDD
:105A5000114CE0020E3E3F401DD9B4012BFF3F39EF
:105A6000209B00C446A100FD2660063B3BF0021CC3
:105A700019FF80E706900985122565EF25E5069157
:105A8000A024B812865B264107EF54F0FFC4540FE0
:105A90004D22500EEE14605D147002618824FE7079
:105AA0000221B840050961F624036002818991A0B2
:105AB0002296814E0412ED281287A290021278CA13
:105AC000204900B6411007EF919D24B71297CA20D4
:105AD0000680591212FC854F919D12CC60740A9178
